:020000040800F2
:10000000D0100020050100086D360008E13100081D
:1000100069360008070400085B450008000000007E
:10002000000000000000000000000000C9390008C6
:10003000790400080000000031370008CB390008BF
:100040001F0100081F0100081F0100081F01000810
:100050001F0100081F010008CD060008D706000890
:100060001F0100081F010008E10600081F01000829
:100070001F0100081F0100080D0400081D040008EE
:100080002D0400083D0400081F0100081F0100089E
:100090001F0100081F0100081F0100081F010008C0
:1000A0001F010008E13B00081F0100081F010008B4
:1000B000F13B0008013C00081F0100081F01000877
:1000C0001F0100081F0100081F0100081F01000890
:1000D000A537000801450008114500081F01000868
:1000E0001F0100081F0100081F010008DFF810D0E1
:1000F00000F04CF900480047E9480008AFF30080E1
:10010000D01000200648804706480047FEE7FEE77B
:10011000FEE7FEE7FEE7FEE7FEE7FEE7FEE7FEE7B7
:10012000DF3B0008ED00000840EA01039B0703D015
:1001300009E008C9121F08C0042AFAD203E011F826
:10014000013B00F8013B521EF9D27047D2B201E0E8
:1001500000F8012B491EFBD270470022F6E710B5CC
:1001600013460A4604461946FFF7F0FF204610BD25
:10017000F0B480EA0102D40F4200B2EB410F02D288
:100180000246084611464A0042D0C30DDDB2C1F313
:10019000C752AD1A202D35DAC1F3160141F4000221
:1001A00004B15242C5F1200602FA06F12A41104478
:1001B000B3EBD05F23D0C4B1012DA0EBC35009DC59
:1001C000F0BC4FF0004202EAC352DBB200F500007F
:1001D00000F0ADB8400000F1807000EBC350A0F11A
:1001E000807040EAD170490009E0490841EAC071D5
:1001F000A0EBC35000F50000400800EBC350F0BC7A
:1002000000F08CB86142012202EB4101001BF6E7CD
:10021000F0BC704781F00041AAE780F00040A7E7FA
:1002200080EA010210B502F00043400022D04A00EB
:100230001FD0010E01EB1261C0F35600C2F356024B
:1002400040F4000042F40002A0FB022000047F39C9
:10025000140400D0401C50EA124001D44000491E52
:10026000C2B20C0604EBD010401C4008802A02D019
:1002700003E0002010BD20F00100002900DA00207A
:10028000184310BDC10F80EAE0700844CA079623E6
:10029000002100F04CB896230022114600F047B828
:1002A00020F00040C10DC0F3160040F400007F298B
:1002B00001DA00207047962903DCC1F19601C8409D
:1002C0007047963988407047002801DBC0F1004034
:1002D000002901DBC1F1004181427047002801DBA8
:1002E000C0F10040002901DBC1F1004188427047A4
:1002F00030B50B46014600202022012409E021FAF6
:1003000002F59D4205D303FA02F5491B04FA02F5F2
:100310002844151EA2F10102F1DC30BD0029A8BF5E
:100320007047401C490008BF20F00100704710B41E
:10033000B0FA80FC00FA0CF050EA010404BF10BCD3
:10034000704749B1CCF1200421FA04F411FA0CF100
:1003500018BF012121430843A3EB0C01CB1D4FEA39
:1003600000614FEA102042BF002010BC704700EB34
:10037000C35010440029A4BF10BC7047401C490062
:1003800008BF20F0010010BC70470000064C074D6C
:1003900006E0E06840F0010394E807009847103455
:1003A000AC42F6D3FFF7A6FE9C560008BC560008E8
:1003B00070B58C1810F8015B15F0070301D110F827
:1003C000013B2A1106D110F8012B03E010F8016B54
:1003D00001F8016B5B1EF9D12B0705D40023521ED7
:1003E0000DD401F8013BFAE710F8013BCB1A921C3F
:1003F00003E013F8015B01F8015B521EF9D5A1423D
:10040000D8D3002070BD00BFFEE7000010B5024841
:1004100000F068FA10BD0000580A002010B502482C
:1004200000F060FA10BD00009C0A002010B50248E0
:1004300000F058FA10BD0000480C002010B502482A
:1004400000F050FA10BD00008C0C002030B590F880
:1004500040500124AC40C56B6C6004686360446824
:10046000102C04D10468A2600468E16003E0046811
:10047000A1600468E26030BD7047000010B502481A
:10048000006804F04DF810BD0400002010B5144AB7
:100490005168106802F066FA1148406828B90020D7
:1004A0000F4909680968486318E00D484068042846
:1004B00005D100200A490968096888630EE00848E8
:1004C0004068082805D10020054909680968C86303
:1004D00004E00020024909680968086410BD0000B2
:1004E0008C0000200F49496821B90E490968096844
:1004F000486315E00B494968042904D10949096892
:10050000096888630CE007494968082904D105494E
:1005100009680968C86303E0024909680968086452
:10052000704700008C00002010B504F09DF90120F8
:1005300004F088F94FF47A7000F024FB002004F0F6
:1005400081F900231CA21946184604F006F91E4939
:100550004FF4C06208681D4901F016FE4FF4FA70AE
:1005600000F010FB002004F06DF917494FF4C06251
:100570000868164901F008FE002315A2194618461E
:1005800004F0EBF8002316A21946602004F0E5F809
:10059000002317A22021184604F0DFF8002318A238
:1005A0002021602004F0D9F807494FF4C0620868A0
:1005B000064901F0E9FD10BD4C434420494E495421
:1005C000204F4B2100000000BC020020B20300209D
:1005D0006E6F77746D703A20202020430000000079
:1005E000646573746D703A20202020430000000081
:1005F0006E6F7773706565643A20202020000000DC
:1006000064657373706565643A20202020000000E3
:1006100010B5144A5168106802F0A4F911484068F6
:1006200028B900200F4909680968486318E00D4897
:100630004068042805D100200A49096809688863D0
:100640000EE008484068082805D1002005490968DF
:100650000968C86304E00020024909680968086461
:1006600010BD0000940000200F49496821B90E49CF
:1006700009680968486315E00B494968042904D1F1
:1006800009490968096888630CE00749496808292D
:1006900004D1054909680968C86303E0024909688B
:1006A00009680864704700009400002010B50548F0
:1006B00003F054F80349C868FFF7F2FD02490860E7
:1006C00010BD0000D8020020F002002010B501206B
:1006D00000F0F6FB10BD10B5022000F0F1FB10BDDC
:1006E00010B5102000F0ECFB10BD000017480068AA
:1006F00038B11748007820B91649098888B21549D9
:1007000008801548006850B11448007820B9144991
:10071000096808461249086000200F4908600B4824
:10072000407F38B100200949487709480078C04324
:10073000074908700848407F38B1002006494877CB
:1007400006480078C043054908707047080000203B
:10075000FC020020FA02002048000020FD020020D8
:10076000F402002010B500F057FD0446184890F838
:100770002800012812D11648406B201A1449498ECE
:1007800088420BD90120124948770846806B08B18E
:10079000886B804700200E4981F828000D4890F8AA
:1007A0002800012812D10B48406B201A0949498EB4
:1007B00088420BD90120074948770846806B08B169
:1007C000886B80470020034981F8280010BD000095
:1007D000080000204800002072B600BFFEE7014676
:1007E000002291F82100022808D00420886300BF6D
:1007F000002081F8200000BF0120704708680068D1
:1008000020F00E000B6818600868006820F00100F6
:100810000B68186091F8403001209840CB6B58600D
:10082000012081F8210000BF002081F8200000BFD6
:100830001046E2E770B50446002594F8210002282E
:1008400003D00420A063012548E02068006820F060
:100850000E00216808602068006820F0010021680F
:1008600008601F492068884201D1012026E01C4908
:1008700014312068884201D110201FE01849283126
:100880002068884201D1801518E015493C31206864
:10089000884201D1801411E011495031206888420A
:1008A00002D14FF4803009E00D496431206888425C
:1008B00002D14FF4801001E04FF0807008490839F0
:1008C0004860012084F8210000BF002084F8200047
:1008D00000BF606B10B12046616B8847284670BD31
:1008E0000800024070B50446E06B056820680668A1
:1008F00094F84010042088402840002846D006F094
:100900000400002842D02068006800F0200028B9C8
:100910002068006820F004002168086057492068BA
:10092000884201D1042027E05449143120688842CC
:1009300001D1402020E0514928312068884201D16E
:10094000001519E04D493C312068884202D14FF42E
:10095000804011E0494950312068884202D14FF46B
:10096000802009E0454964312068884202D14FF473
:10097000800001E04FF08060404908394860E06A3B
:1009800000287AD02046E16A884776E094F8401043
:10099000022088402840A0B306F0020088B32068F7
:1009A000006800F0200040B92068006820F00A00CC
:1009B00021680860012084F82100304920688842BD
:1009C00001D1022028E02D4914312068884201D14C
:1009D000202021E0294928312068884201D1401592
:1009E0001AE026493C312068884202D14FF4005079
:1009F00012E0224950312068884203D14FF4003080
:100A00000AE017E01D4964312068884202D14FF4A2
:100A1000001001E04FF0007018490839486000BF2D
:100A2000002084F8200000BFA06A30B32046A16AED
:100A3000884722E094F84010082088402840E0B120
:100A400006F00800C8B12068006820F00E00216898
:100A5000086094F8401001208840E16B4860012054
:100A6000A06384F8210000BF002084F8200000BFAC
:100A7000206B10B12046216B884770BD08000240F2
:100A80000146002209B901207047164B0868C01AB8
:100A90001423B0FBF3F08000086412480838C863E0
:100AA000022081F821000868026843F6F070824352
:100AB000D1E901031843CB6818430B6918434B690C
:100AC00018438B691843CB691843024308680260D6
:100AD00000208863012081F82100002081F8200097
:100AE00000BFD1E7080002402DE9F04104460D4661
:100AF00016461F464FF0000800BF94F8200001285A
:100B000002D10220BDE8F081012084F8200000BF5E
:100B100094F8210001282CD1022084F82100002023
:100B2000A0632068006820F00100216808603B464F
:100B3000324629462046FFF789FCE06A30B120683A
:100B4000006840F00E00216808600BE02068006833
:100B500020F00400216808602068006840F00A0066
:100B6000216808602068006840F001002168086082
:100B700006E000BF002084F8200000BF4FF002080C
:100B80004046BFE770B5044600F046FB06462546E2
:100B9000681C10B104480078054400BF00F03CFB1D
:100BA000801BA842FAD370BD1403002070B5044620
:100BB00000F032FBBF490860BF480089A04240D125
:100BC000BD4A1189506800F019FB68B9BA48807EA7
:100BD00050B90120B84988760A46118AD06800F0D9
:100BE0000DFBB549C8762CE0B34A1189506800F076
:100BF00005FB012825D1B048807E012821D10020A5
:100C0000AD4988760A46118AD06800F0F7FAAA49F9
:100C100008770846C07E012807D10846007F20B922
:100C200008460068401C08600BE0A348C07E40B93D
:100C3000A148007F012804D19F480068401E9E49BA
:100C400008609D48008BA04274D19B48006A994976
:100C50000968081A9849898C884200D270BD954865
:100C60000068954908620A46118B506900F0C6FA7F
:100C700005465DB9904890F8270038B901208E49A3
:100C800081F827008B480068C86252E0012D50D1DE
:100C9000894890F8270001284BD10020864981F827
:100CA00027000846C06A83490968081A8249098EE4
:100CB00088420BD3032080494877002081F8280020
:100CC0000846806BA8B3886B804732E07A4890F87A
:100CD0002800401C784981F82800084690F8280030
:100CE000012803D173480068486322E0724890F8F5
:100CF000280002281DD17048406B6E490968081A07
:100D00006D49498E884208D202206B4948770846CF
:100D1000806B50B1886B804707E0012066494877B7
:100D20000846806B08B1886B80470020624981F8D3
:100D3000280000BF61480089A04240D15F4A118964
:100D4000506800F05BFA68B95C48807E50B90120B9
:100D50005A4988760A46118AD06800F04FFA5749F6
:100D6000C8762CE0554A1189506800F047FA0128EE
:100D700025D15248807E012821D100204F49887614
:100D80000A46118AD06800F039FA4C4908770846BB
:100D9000C07E012807D10846007F20B908460068B8
:100DA000401C08600BE04548C07E40B94348007FC6
:100DB000012804D141480068401E404908603F486E
:100DC000008BA04274D13D48006A3A490968081A6C
:100DD0003A49898C884200D240E736480068374952
:100DE00008620A46118B506900F008FA05465DB9A1
:100DF000324890F8270038B90120304981F827009F
:100E00002C480068C86252E0012D50D12B4890F860
:100E1000270001284BD10020284981F827000846E7
:100E2000C06A24490968081A2449098E88420BD3EC
:100E3000032022494877002081F828000846806B6B
:100E4000A8B3886B804732E01C4890F82800401C0B
:100E50001A4981F82800084690F82800012803D193
:100E600014480068486322E0144890F828000228DB
:100E70001DD11248406B0F490968081A0F49498E65
:100E8000884208D202200D4948770846806B50B14D
:100E9000886B804707E00120084948770846806B47
:100EA00008B1886B80470020044981F8280000BF02
:100EB00000BFD3E688000020080000204800002082
:100EC00010B5044604480068204020B10248046080
:100ED0002046FFF76BFE10BD140401402DE9F847D2
:100EE0000346002294466EE14FF0010808FA02F42E
:100EF000D1F8008008EA0400A0427DD1DFF8DCA22E
:100F0000D1F80480A8EB0A09D0453AD014DCB8F136
:100F1000030F50D009DCB8F1000F31D0B8F1010F48
:100F20001CD0B8F1020F49D120E0B8F1110F18D050
:100F3000B8F1120F42D11EE0B9F5881F25D006DCAA
:100F4000B9F5803F20D0B9F5801F37D11AE0B9F547
:100F5000001F18D0B9F5041F30D117E0D1F80CC02C
:100F60002DE0D1F80C8008F1040C28E0D1F80C80B9
:100F700008F1080C23E0D1F80C8008F10C0C1EE0FD
:100F800000BF00BF00BF00BF00BF00BFD1F8088096
:100F9000B8F1000F02D14FF0040C0BE0D1F808803B
:100FA000B8F1010F03D14FF0080C1C6102E04FF0C3
:100FB000080C5C6103E04FF0000C00E000BF00BFD4
:100FC000FF2801D8984601E003F104084646FF28AF
:100FD00002D84FEA820803E0A2F108084FEA880825
:100FE0004746D6F800804FF00F0909FA07F928EABA
:100FF00009080CFA07F900E088E048EA0908C6F891
:101000000080D1F8048008F08058B8F1805F7DD16D
:1010100000BFDFF8CC81D8F8188048F00108DFF86D
:10102000C091C9F81880C846D8F8188008F001089F
:10103000CDF8008000BF00BF4FEAB9384FEA9209EF
:1010400058F829504FEA82784FEA18794FF00F0884
:1010500008FA09F825EA0805DFF88881434502D136
:101060004FF0000816E0DFF88081434502D14FF0D1
:1010700001080FE0DFF87481434502D14FF0020808
:1010800008E0DFF86C81434502D14FF0030801E02E
:101090004FF004084FEA82794FEA197908FA09F803
:1010A00048EA0505DFF84C814FEA920948F82950D3
:1010B000D1F8048008F48018B8F5801F0AD1DFF851
:1010C0003881D8F8008048EA0008DFF82C91C9F888
:1010D000008009E0DFF82081D8F8008028EA0008C5
:1010E000DFF81491C9F80080D1F8048008F40018E2
:1010F000B8F5001F10D1DFF8008108F10408D8F816
:10110000008048EA0008DFF8F09000E05AE009F1BA
:101110000409C9F800800DE0DFF8DC8008F104085C
:10112000D8F8008028EA0008DFF8CC9009F104091B
:10113000C9F80080D1F8048008F40038B8F5003F01
:101140000ED1DFF8B480A8F10408D8F8008048EA8E
:101150000008DFF8A490A9F10409C9F800800DE0A7
:10116000DFF89480A8F10408D8F8008028EA000885
:10117000DFF88490A9F10409C9F80080D1F804804F
:1011800008F48038B8F5803F0ED1DFF86C80A8F104
:101190000808D8F8008048EA0008DFF85C90A9F158
:1011A0000809C9F800800DE0DFF84C80A8F10808B4
:1011B000D8F8008028EA0008DFF83C90A9F1080977
:1011C000C9F80080521CD1F8008028FA02F8B8F162
:1011D000000F7FF489AEBDE8F88700000000111011
:1011E0000010024000080140000C014000100140C6
:1011F00000140140080001400804014002469368C1
:101200000B400BB1012000E0002070470AB10161E2
:1012100001E00B040361704701480068704700005B
:101220000C03002003480068034909780844014979
:10123000086070470C0300201403002010B5084814
:10124000006840F0100006490860032000F0A8F88C
:10125000002000F007F800F02BF8002010BD00007F
:101260000020024070B504460E4800784FF47A71B1
:10127000B1FBF0F00C490968B1FBF0F5284601F02C
:1012800003F808B1012070BD102C07D200222146BE
:10129000501E00F047F80548046001E00120F2E725
:1012A0000020F0E7140300201803002010030020A2
:1012B00008B500BF1148806940F001000F498861FE
:1012C0000846806900F00100009000BF00BF00BF29
:1012D0000846C06940F08050C8610846C06900F007
:1012E0008050009000BF00BF00BF0549486820F053
:1012F000E06040F00070486000BF08BD0010024090
:101300000000014001460846002809DB00F01F03E9
:1013100001229A4043099B0003F1E023C3F8002116
:1013200000BF70472DE9F05F80460D461646002746
:1013300003F02AF9074639462A46334601F00700EA
:10134000C0F1070ABAF1040F02D94FF0040A01E014
:10135000C0F1070AD14600F1040ABAF1070F02D220
:101360004FF0000A01E0A0F1030AD4464FF0010A51
:101370000AFA09FAAAF1010A0AEA020A0AFA0CFAB6
:101380004FF0010B0BFA0CFBABF1010B0BEA030B5B
:101390004AEA0B042146404603F0FEF8BDE8F09F00
:1013A00000BF00F00702064B19684FF6FF03194013
:1013B000044B0B4343EA0221014B196000BF704705
:1013C0000CED00E00000FA0570B504460D460CB9BE
:1013D000012070BD5A48006800F00700A8420ED2F4
:1013E0005748006820F00700284355490860084620
:1013F000006800F00700A84201D00120E9E720784A
:1014000000F0020002281DD1207800F0040004281A
:1014100005D14C48406840F4E0604A494860207873
:1014200000F00800082805D14648406840F46050A4
:10143000444948604348406820F0F000A1680843F0
:1014400040494860207800F0010078B360680128C6
:1014500006D13C48006800F4003090B90120B8E79C
:101460006068022806D13748006800F0007040B973
:101470000120AEE73348006800F0020008B90120FF
:10148000A7E73048406820F00300616808432D4911
:101490004860FFF7C1FE064609E0FFF7BDFE801B6E
:1014A00041F28831884202D9032092E707E02548BB
:1014B000406800F00C006168B0EB810FEDD120486E
:1014C000006800F00700A8420ED91D48006820F00F
:1014D000070028431A4908600846006800F0070022
:1014E000A84201D0012074E7207800F0040004280D
:1014F00007D11448406820F4E060E16808431149CE
:101500004860207800F00800082808D10D4840689D
:1015100020F46050216940EAC1000A49486000F0A7
:101520003FF808494968C1F30311074A515CC840B4
:101530000649086006480068FFF794FE002048E767
:1015400000200240001002408456000818030020CA
:1015500010030020014800687047000018030020B5
:1015600000B5FFF7F7FF04494968C1F30221034AB8
:10157000515CC84000BD00000010024094560008B5
:1015800000B5FFF7E7FF04494968C1F3C221034AE8
:10159000515CC84000BD0000001002409456000895
:1015A00070B500210022002400230020134D69683B
:1015B00001F00C05F5B1042D02D0082D19D101E080
:1015C0000F4819E00F4DC1F38346AB5D01F4803540
:1015D00055B10A4D6D68C5F340450B4E725D084D1F
:1015E0005D43B5FBF2F402E0084D03FB05F4204631
:1015F00002E000BF024800BF00BF70BD0010024003
:1016000000127A00725600088256000800093D0058
:10161000F8B504460CB90120F8BD207800F00100AF
:10162000002878D0F848406800F00C0004280CD05E
:10163000F548406800F00C00082811D1F2484068D5
:1016400000F48030B0F5803F0AD1EF48006800F424
:10165000003000285FD0606800285CD10120DBE703
:1016600000BF6068B0F5803F06D1E748006840F4ED
:101670008030E549086028E0606858B9E2480068B1
:1016800020F48030E04908600846006820F480209B
:1016900008601AE06068B0F5A02F0BD1DA48006846
:1016A00040F48020D84908600846006840F4803043
:1016B00008600AE0D448006820F48030D24908600D
:1016C0000846006820F48020086000BF606888B188
:1016D000FFF7A2FD054606E0FFF79EFD401B6428CC
:1016E00001D9032098E7C848006800F400300028BA
:1016F000F2D010E0FFF790FD054606E0FFF78CFD05
:10170000401B642801D9032086E7BF48006800F425
:1017100000300028F2D1207800F00200022857D1D2
:10172000B948406800F00C0050B1B748406800F07C
:101730000C00082818D1B448406800F4803098B9EB
:10174000B148006800F0020020B12069012801D0F2
:10175000012061E7AC48006820F0F800616940EAC8
:10176000C100A949086033E02069E8B10120A74918
:101770000860FFF751FD054606E0FFF74DFD401BF1
:10178000022801D9032047E79F48006800F00200C3
:101790000028F2D09C48006820F0F800616940EA17
:1017A000C1009949086013E0002098490860FFF7DC
:1017B00033FD054606E0FFF72FFD401B022801D947
:1017C000032029E79048006800F002000028F2D1C9
:1017D000207800F0080008282DD1A069B8B10120B8
:1017E0008B490860FFF718FD054606E0FFF714FD7A
:1017F000401B022801D903200EE78348406A00F00D
:1018000002000028F2D0012001F094FF13E0002034
:101810007F490860FFF700FD054606E0FFF7FCFC86
:10182000401B022801D90320F6E67748406A00F001
:1018300002000028F2D1207800F00400042873D1BF
:1018400000277148C06900F0805070B900BF6E4831
:10185000C06940F080506C49C8610846C06900F01A
:101860008050009000BF00BF01276A48006800F464
:101870008070B0B96748006840F4807065490860BE
:10188000FFF7CAFC054606E0FFF7C6FC401B6428CC
:1018900001D90320C0E65F48006800F4807000288A
:1018A000F2D000BFE068012806D15748006A40F036
:1018B00001005549086227E0E06858B95248006ABB
:1018C00020F00100504908620846006A20F0040038
:1018D000086219E0E06805280BD14B48006A40F027
:1018E0000400494908620846006A40F001000862A5
:1018F0000AE04548006A20F00100434908620846B2
:10190000006A20F00400086200BFE068A0B1FFF7A1
:1019100083FC054609E0FFF77FFC401B41F288315C
:10192000884202D9032077E622E03748006A00F0B7
:1019300002000028EFD012E0FFF76EFC054608E039
:10194000FFF76AFC401B41F28831884201D903202D
:1019500062E62D48006A00F002000028F0D1012F55
:1019600005D12948C06920F080502749C86100BFCF
:10197000E069C8B32448406800F00C00082860D033
:10198000E069022848D1002020490866FFF744FC9E
:10199000054606E0FFF740FC401B022801D9032062
:1019A0003AE61948006800F000700028F2D1206A79
:1019B000B0F5803F07D11448406820F40030A1689A
:1019C000084311494860D4E9080108430E494968B1
:1019D00021F4741108430C49486001200B49086642
:1019E000FFF71AFC054607E03DE0FFF715FC401B3A
:1019F000022801D903200FE60348006800F00070B8
:101A00000028F2D02FE00000001002400000424207
:101A10008004424200700040002014490866FFF72D
:101A2000FBFB054606E0FFF7F7FB401B022801D948
:101A30000320F1E50E48006800F000700028F2D1A4
:101A400011E0E069012800D1E6E50948466806F49E
:101A50008031206A814204D106F47011606A8142AB
:101A600001D00120D8E50020D6E500000000424268
:101A7000001002407047014691F851007047000085
:101A8000F8B504462068466820688568C5F380106C
:101A900048B905F0010030B1C6F3801018B12046F6
:101AA000216C8847F8BDC5F3400030B1C6F3C010C3
:101AB00018B12046616C8847F4E7C5F3401018B9A7
:101AC000C5F38010002871D0C6F3401000286DD0F7
:101AD000C5F38010F0B194F8510003280ED0606D6A
:101AE00040F00400606500BF002000902068C068DE
:101AF000009020688068009000BF0BE000BF0020CD
:101B000000902068C068009020688068009000BF46
:101B100000BFC7E7C5F3401088B1606D40F0010019
:101B2000606500BF002000902068806800902068F9
:101B3000006820F040002168086000BF00BF606DB1
:101B400070B32068406820F0E00021684860012000
:101B500084F8510006F0020010B906F0010000B34D
:101B60002068406820F0030021684860E06C50B1B4
:101B70000F48E16C4863E06CFEF75CFE18B1606DE5
:101B800040F040006065A06C50B10948A16C48630A
:101B9000A06CFEF74FFE18B1606D40F0400060652C
:101BA00002E02046FFF766FF7CE7FFE700BF79E72A
:101BB000B537000810B504460CB9012010BD606AA5
:101BC00038B96068B0F5827F00D105E00021E1619D
:101BD00002E00021216161610021A16294F85100BD
:101BE00028B9002084F85000204600F043F8022075
:101BF00084F851002068006820F0400021680860E7
:101C0000A08800F48270218901F404410843A1896D
:101C100001F400610843217C01F002010843217DA9
:101C200001F001010843218B01F400710843217F79
:101C300001F0380108432021095D01F080010843CB
:101C4000218D01F400510843216808600421A06936
:101C500001EA1040216848602068C06920F40060F3
:101C60002168C86100206065012084F851000020CF
:101C7000A4E7000010B586B004460020029003904F
:101C8000049005903849206888426AD100BF3748DF
:101C9000C06940F480403549C8610846C06900F415
:101CA0008040019000BF00BF00BF0846806940F03F
:101CB000080088610846806900F00800019000BFB4
:101CC00000BF4FF4204002900220039003200590B3
:101CD00002A92748FFF702F94FF480400290002044
:101CE0000390049002A92248FFF7F8F821482249FE
:101CF00008600020486000211F4881608021C16089
:101D00000021016141618161C161FEF7B9FE08B145
:101D1000FEF762FD00BF1848E064446200BF15484A
:101D20001430164908601020486000211348816073
:101D30008021C1600021016141618161C161FEF7C3
:101D40009FFE08B1FEF748FD00BF0C48A064446246
:101D500000BF002211462420FFF7E4FA2420FFF7F9
:101D6000D1FA06B010BD000000380040001002405B
:101D7000000C014044000240580A00209C0A002048
:101D80002DE9F84304460F4616461D46FFF744FA70
:101D90008046B14694F85100012802D00220BDE8E7
:101DA000F88307B10EB90120F9E700BF94F850009D
:101DB000012801D10220F2E7012084F8500000BF81
:101DC000032084F85100002060652763A686E6861C
:101DD000A063A087E08760642064A068B0F5004F2E
:101DE0000BD12068006820F040002168086020685E
:101DF000006840F48040216808602068006800F0B6
:101E00004000402805D02068006840F0400021686C
:101E10000860E068B0F5006F37D1606810B1B9F1C3
:101E2000010F09D1206B00882168C860206B801CDD
:101E30002063E08E401EE08623E02068806800F08A
:101E4000020002280AD1206B00882168C860206B3C
:101E5000801C2063E08E401EE08612E0FFF7DCF974
:101E6000A0EB0800A84201D3681C00B94DB90120BD
:101E700084F8510000BF002084F8500000BF032008
:101E80008DE7E08E0028D8D136E0606810B1B9F156
:101E9000010F09D1206B007821680873206B401C6A
:101EA0002063E08E401EE08623E02068806800F01A
:101EB000020002280AD1206B007821680873206B89
:101EC000401C2063E08E401EE08612E0FFF7A4F97C
:101ED000A0EB0800A84201D3681C00B94DB901204D
:101EE00084F8510000BF002084F8500000BF032098
:101EF00055E7E08E0028D8D142462946204601F019
:101F0000BDFC08B120206065A06850B900BF00206A
:101F100000902068C068009020688068009000BF32
:101F200000BF012084F8510000BF002084F8500059
:101F300000BF606D08B1012031E700202FE72DE9D7
:101F4000FE4F04460F4690461D460C9E0120019010
:101F5000FFF762F9814694F851B060680290AA4692
:101F6000BBF1010F0BD00298B0F5827F04D1A068BD
:101F700010B9BBF1040F02D00220BDE8FE8F1FB1E3
:101F8000B8F1000F00D00DB90120F6E700BF94F8BA
:101F90005000012801D10220EFE7012084F8500011
:101FA00000BF94F85100042802D0052084F85100A5
:101FB00000206065C4F83880E587A5872763E5863B
:101FC000A586206460642068006800F04000402816
:101FD00005D02068006840F0400021680860E06893
:101FE000B0F5006F52D1606810B1BAF1010F09D19C
:101FF000206B00882168C860206B801C2063E08E05
:10200000401EE0863BE02068806800F00200022865
:1020100010D1E08E70B1019801280BD1206B00889F
:102020002168C860206B801C2063E08E401EE08623
:10203000002001902068806800F0010068B1E08F06
:1020400058B12068C068A16B0880A06B801CA06399
:10205000E08F401EE08701200190FFF7DDF8A0EB44
:102060000900B0420BD3701C48B1012084F8510024
:1020700000BF002084F8500000BF03207DE7E08E01
:102080000028C0D1E08F0028BDD152E0606810B1B7
:10209000BAF1010F09D1206B007821680873206B19
:1020A000401C2063E08E401EE0863CE02068806893
:1020B00000F00200022810D1E08E70B101980128D2
:1020C0000BD1206B007821680873206B401C2063C3
:1020D000E08E401EE086002001902068806800F0BD
:1020E000010068B1E08F58B12068C068A16B08702A
:1020F000A06B401CA063E08F401EE0870120019090
:10210000FFF78AF8A0EB0900B04201D3701C00B9B8
:102110004EB9012084F8510000BF002084F850001F
:1021200000BF032029E7E08E0028BFD1E08F002800
:10213000BCD14A463146204601F0A0FB40B12020E8
:10214000606500BF002084F8500000BF012014E744
:10215000A06850B900BF002000902068C0680090BF
:1021600020688068009000BF00BF012084F8510003
:1021700000BF002084F8500000BF606D08B101204E
:10218000FBE60020F9E600002DE9F04104460E468A
:10219000154694F85100012802D00220BDE8F081D4
:1021A00006B10DB90120F9E700BF94F850000128ED
:1021B00001D10220F2E7012084F8500000BF032083
:1021C00084F85100002060652663A586E586A0633B
:1021D00060642064A087E087A068B0F5004F0BD151
:1021E0002068006820F040002168086020680068CE
:1021F00040F48040216808601F48A16CC8621F48F5
:10220000A16C88621E48A16C08630020A16C486321
:10221000E38E276807F10C02216BA06CFEF764FCCB
:1022200050B1606D40F01000606500BF002084F880
:10223000500000BF0120B1E72068006800F04000B6
:10224000402805D02068006840F040002168086000
:1022500000BF002084F8500000BF2068406840F0B4
:102260002000216848602068406840F00200216832
:102270004860002092E70000F1370008FF370008AF
:10228000C93700087047704770B504462546681E78
:10229000B0F1807F01D301200FE0681E4FF0E021F4
:1022A00048610F214FF0FF3002F076F900204FF027
:1022B000E021886107200861002070BD70477047E9
:1022C00030B502460B4600BF92F83C00012801D110
:1022D000022030BD012082F83C0000BF022082F8BD
:1022E0003D00106844681068816824F07004186824
:1022F000044310684460104D1068A8420BD0106869
:10230000B0F1804F07D00D4D1068A84203D00C4D9E
:102310001068A84205D121F0800158680143106877
:102320008160012082F83D0000BF002082F83C005F
:1023300000BF00BFCDE70000002C014000040040BA
:102340000008004010B504460CB9012010BD94F8F7
:102350003D0028B9002084F83C00204600F026F813
:10236000022084F83D00211D206801F051FC01206D
:1023700084F8460000BF84F83E0001213F2001554B
:10238000402001554120015500BF00BF012084F8C5
:10239000420043200155442001554520015500BF0E
:1023A000012084F83D000020D0E7000038B5044645
:1023B00028492068884216D100BF2748806940F428
:1023C0000060254988610846806900F4006000903B
:1023D00000BF00BF002211461920FEF7A3FF1920FD
:1023E000FEF790FF34E02068B0F1804F16D100BFB7
:1023F0001948C06940F001001749C8610846C06922
:1024000000F00100009000BF00BF002211461C2018
:10241000FEF788FF1C20FEF775FF19E00F492068C2
:10242000884215D100BF0C48C06940F002000A493B
:10243000C8610846C06900F00200009000BF00BFFC
:10244000002211461D20FEF76DFF1D20FEF75AFFEA
:1024500038BD0000002C0140001002400004004084
:10246000014691F83D00012801D00120704702206B
:1024700081F83D00124B086898420BD00868B0F113
:10248000804F07D00F4B0868984203D00E4B086866
:1024900098420CD10868806800F00702062A0CD028
:1024A0000868006840F001000B68186005E00868E3
:1024B000006840F001000B6818600020D6E70000BB
:1024C000002C014000040040000800402DE9F041CC
:1024D00004460D46002700BF94F83C00012802D1B5
:1024E0000220BDE8F081012084F83C0000BF0220FA
:1024F00084F83D002068866826F0770626F47F463B
:10250000206886602868502833D00CDC202850D002
:1025100004DC00284BD0102851D149E0302849D0A4
:1025200040284CD139E060282DD0702807D0B0F574
:10253000805F03D0B0F5005F41D10DE041E0D5E907
:1025400002136A68206801F0B6FB2068866846F0CE
:1025500077062068866034E0D5E902136A6820684F
:1025600001F0A9FB2068806840F480402168886001
:1025700027E0EA686968206801F06EFC5021206855
:1025800001F0A4FB1DE0EA686968206801F077FCAF
:102590006021206801F09AFB13E0EA68696820680E
:1025A00001F05AFC4021206801F090FB09E000BFD7
:1025B00000BF00BF2968206801F088FB01E0012707
:1025C00000BF00BF012084F83D0000BF002084F858
:1025D0003C0000BF384684E7704770B50446206869
:1025E000C5682068066906F00200022819D105F0C6
:1025F0000200022815D1401F2168086101202077C0
:102600002068806900F0030018B12046FFF7E4FF5E
:1026100005E0204600F0EEF8204600F0A2F9002088
:10262000207706F00400042819D105F004000428DE
:1026300015D1C04321680861022020772068806995
:1026400000F4407018B12046FFF7C6FF05E02046B1
:1026500000F0D0F8204600F084F90020207706F042
:102660000800082819D105F00800082815D1C04332
:1026700021680861042020772068C06900F0030009
:1026800018B12046FFF7A8FF05E0204600F0B2F899
:10269000204600F066F90020207706F01000102890
:1026A00019D105F01000102815D1C0432168086128
:1026B000082020772068C06900F4407018B12046D7
:1026C000FFF78AFF05E0204600F094F8204600F06E
:1026D00048F90020207706F0010048B105F001001C
:1026E00030B16FF0010021680861204600F0A4F9C4
:1026F00006F08000802809D105F08000802805D1EF
:10270000C043216808612046FFF7D8FD06F040006D
:10271000402809D105F04000402805D1C043216878
:102720000861204600F094F906F02000202809D125
:1027300005F02000202805D1C0432168086120460B
:10274000FFF7BDFD70BD000010B586B00446002047
:1027500002900390049005902068B0F1804F21D141
:1027600000BF1F48806940F008001D498861084685
:10277000806900F00800019000BF00BF08200290AF
:1027800002200390059002A91648FEF7A7FB00BFA0
:102790001549486820F4407040F0E06040F48070D3
:1027A00048601AE011492068884216D100BF0C48E1
:1027B000806940F004000A4988610846806900F099
:1027C0000400019000BF00BF40200290022003904F
:1027D000059002A90648FEF781FB06B010BD000077
:1027E00000100240000C01400000014000040040C5
:1027F0000008014070472DE9F04104460D46164699
:10280000002700BF94F83C00012802D10220BDE857
:10281000F081012084F83C0000BF36B1042E1BD0AB
:10282000082E31D00C2E5ED145E02946206801F0FB
:1028300057FA2068806940F00800216888612068A4
:10284000806920F004002168886120688069296916
:1028500008432168886148E02946206801F070FA41
:102860002068806940F40060216888612068806980
:1028700020F480602168886120688069296940EAC5
:1028800001202168886130E02946206801F08CFA37
:102890002068C06940F008002168C8612068C069EC
:1028A00020F004002168C8612068C06929690843D4
:1028B0002168C86119E02946206801F0A9FA20685A
:1028C000C06940F400602168C8612068C06920F4D4
:1028D00080602168C8612068C069296940EA0120D8
:1028E0002168C86101E0012700BF00BF00BF0020D0
:1028F00084F83C0000BF384689E710B504460CB99F
:10290000012010BD94F83D0028B9002084F83C0057
:10291000204600F025F8022084F83D00211D2068A3
:1029200001F076F9012084F8460000BF84F83E00EB
:1029300001213F200155402001554120015500BF94
:1029400000BF012084F84200432001554420015576
:102950004520015500BF012084F83D000020D0E74C
:102960007047704770B504460D4615B994F83E009F
:102970000BE0042D02D13F20005D06E0082D02D1BE
:102980004020005D01E04120005D012801D00120D0
:1029900070BD1DB9022084F83E000EE0042D03D165
:1029A00002213F20015508E0082D03D102214020DB
:1029B000015502E0022141200155012229462068EB
:1029C00001F068F919492068884201D1012000E02E
:1029D000002028B12068406C40F400402168486421
:1029E0001249206888420BD02068B0F1804F07D090
:1029F0000F492068884203D00E49206888420CD1D4
:102A00002068806800F00706062E0CD02068006859
:102A100040F001002168086005E02068006840F08F
:102A20000100216808600020B2E70000002C01408E
:102A300000040040000800400349884202D10121FF
:102A4000024A117070470000E00A002000000020D8
:102A50007047F8B504460D46164694F84200202803
:102A60002DD105B10EB90120F8BD01202063002051
:102A7000606332462946204601F048FC0746206B39
:102A8000012819D100BF0020009020680068009044
:102A900020684068009000BF00BF00BF00BF2168F1
:102AA0000C3151E8001F41F0100021680C3141E861
:102AB0000002002AF3D100E001273846D4E70220C3
:102AC000D2E7F8B504460E46174694F8420020288F
:102AD0002ED106B10FB90120F8BD012020630020DE
:102AE00060633A463146204601F074FC0546EDB974
:102AF000206B012819D100BF0020009020680068D9
:102B0000009020684068009000BF00BF00BF00BF79
:102B100021680C3151E8001F41F0100021680C3190
:102B200041E80002002AF3D100E001252846D3E75E
:102B30000220D1E770B504460D46174920680968A0
:102B4000096888420BD129461348083001F02AFF52
:102B50004FF48072104908311048FFF7B2FF104956
:102B6000206809680968884214D10D492A46086816
:102B7000083100F0EDFA0A494FF480720868083114
:102B8000FFF767FF07480068006820F00400054968
:102B90000968086070BD00009C000020B80B002090
:102BA000AC010020480C0020704700002DE9F84FD0
:102BB0000446206805682068C668206847694FF0A9
:102BC0000009CA4605F00F09B9F1000F0AD105F056
:102BD000200038B106F0200020B1204601F08DFA27
:102BE000BDE8F88FB9F1000F7BD007F0010018B9EC
:102BF00006F49070002874D005F0010030B106F49E
:102C0000807018B1606C40F00100606405F0040051
:102C100030B107F0010018B1606C40F00200606450
:102C200005F0020030B107F0010018B1606C40F00F
:102C30000400606405F0080048B106F0200010B9F7
:102C400007F0010018B1606C40F008006064606C2F
:102C5000002845D005F0200028B106F0200010B172
:102C6000204601F04AFA20684069C0F3801A606C7F
:102C700000F0080010B9BAF1000F2CD0204601F086
:102C8000E3F92068406900F0400000B300BF00BFD6
:102C90002168143151E8001F21F0400021681431EF
:102CA00041E80002002AF3D100BFE06B50B1774841
:102CB000E16B4863E06BFDF7BDFD88B1E06B416BF4
:102CC00088470DE02046FFF76FFF09E009E0204646
:102CD000FFF76AFF04E02046FFF766FF002060640C
:102CE0007EE7206B012877D105F01000002873D013
:102CF00006F010000028FAD000BF002000902068E5
:102D00000068009020684068009000BF00BF206805
:102D1000406900F0400000285FD0E06B0068406828
:102D20001FFA80F8B8F1000F55D0A08D404552DD54
:102D3000A4F82E80E06B8069202843D000BF00BF3C
:102D400021680C3151E8001F21F4807021680C319A
:102D500041E80002002AF3D100BF00BF00BF216894
:102D6000143151E8001F21F001002168143141E8BD
:102D70000002002AF3D100BF00BF00BF2168143158
:102D800051E8001F21F040002168143141E80002A1
:102D9000002AF3D100BF202084F8420000202063E5
:102DA00000BF00BF21680C3151E8001F21F0100066
:102DB00021680C3141E80002002AF3D100BFE06B2A
:102DC000FDF70DFD02206063A08DE28D801A81B2B7
:102DD0002046FFF7AFFE03E742E0A08DE18D401AE9
:102DE0001FFA80F8E08DD0B3B8F1000F37D000BFE4
:102DF00000BF21680C3151E8001F21F49070216858
:102E00000C3141E80002002AF3D100BF00BF00BF2F
:102E10002168143151E8001F21F0010021681431AC
:102E200041E80002002AF3D100BF202084F84200CC
:102E30000020206300BF00BF21680C3151E8001F53
:102E400021F0100021680C3141E80002002AF3D182
:102E500000BF0220606341462046FFF76BFEBFE6DD
:102E600005F0800030B106F0800018B1204601F076
:102E7000D1FAB5E605F0400030B106F0400018B1D7
:102E8000204601F017F9ABE600BFA9E6A73E00080F
:102E900010B504460CB9012010BDA06900B100E0D6
:102EA00000BF94F8410028B9002084F84000204673
:102EB00000F02AF8242084F841002068C06820F43B
:102EC00000502168C860204601F0A2F9206800691E
:102ED00020F49040216808612068406920F02A00B1
:102EE000216848612068C06840F400502168C860CB
:102EF00000206064202084F8410084F84200002013
:102F0000606300BFC8E7000010B586B0044600202B
:102F1000029003900490059055492068884237D16B
:102F200000BF5448806940F4804052498861084697
:102F3000806900F48040019000BF00BF00BF0846D8
:102F4000806940F0040088610846806900F0040050
:102F5000019000BF00BF481502900220039003209B
:102F6000059002A94448FDF7B9FF4FF48060029034
:102F700000200390049002A93F48FDF7AFFF002214
:102F800011462520FEF7CEF92520FEF7BBF96CE0AF
:102F90003A492068884268D100BF3648C06940F489
:102FA00000303449C8610846C06900F4003001901F
:102FB00000BF00BF00BF0846806940F00400886180
:102FC0000846806900F00400019000BF00BF0420A3
:102FD0000290022003900320059002A92648FDF7E5
:102FE0007DFF0820029000200390049002A922484F
:102FF000FDF774FF22482349086000204860002143
:10300000204881608021C1600021016141618161AE
:10301000C161FDF735FD08B1FDF7DEFB00BF1948C2
:10302000E063446200BF164814301749086010205E
:1030300048600021144881608021C1600021016145
:1030400041618161C161FDF71BFD08B1FDF7C4FB62
:1030500000BF0D48A063446200BF00221146262035
:10306000FEF760F92620FEF74DF906B010BD00000E
:1030700000380140001002400008014000440040B8
:103080006C000240480C00208C0C002070477047F8
:103090002DE9F84F04460E46174699464FF0000AB0
:1030A00094F84100202850D106B117B90120BDE89D
:1030B000F88F00206064212084F84100FEF7ACF80E
:1030C0008246A784E784A068B0F5805F04D12069B8
:1030D00010B90025B04602E035464FF000081EE06A
:1030E0005346002280212046CDF8009001F0C2F91D
:1030F00020B1202084F841000320D8E745B9B8F872
:103100000000C0F308002168486008F1020803E0ED
:103110002878216848606D1CE08C401EE084E08CBB
:103120000028DDD15346002240212046CDF80090F2
:1031300001F0A0F920B1202084F841000320B6E777
:10314000202084F841000020B1E70220AFE7000012
:10315000F7B50446154694F84100202836D1019869
:1031600000B10DB90120FEBD01982062A584E5845F
:1031700000206064212084F841001548A16B88621A
:103180001448A16BC8621448A16B08630020A16BAE
:10319000486301AE23681A1D31682B46A06BFDF70A
:1031A000A3FC6FF040002168086000BF00BF2168E9
:1031B000143151E8001F41F080002168143141E8CA
:1031C0000002002AF3D100BF0020CCE70220CAE7AA
:1031D000E33F00083B400008BB3E000870477047D3
:1031E00000BFFEE710B506480068C06840F0010067
:1031F00003490968C8600248FFF732F910BD0000B2
:10320000E00A002008B500BF1648406940F0010000
:10321000144948610846406900F00100009000BF71
:1032200000BF002211460E20FEF77CF80E20FEF7AC
:1032300069F8002211460F20FEF774F80F20FEF700
:1032400061F8002211461020FEF76CF81020FEF7FE
:1032500059F8002211461120FEF764F81120FEF7FC
:1032600051F808BD0010024000B585B00020019063
:1032700002900390049000BF5A48806940F010000B
:10328000584988610846806900F01000009000BF2E
:1032900000BF00BF0846806940F0200088610846F2
:1032A000806900F02000009000BF00BF00BF08460A
:1032B000806940F0040088610846806900F00400DD
:1032C000009000BF00BF00BF0846806940F00800C2
:1032D00088610846806900F00800009000BF00BFC8
:1032E00000224FF400514048FDF790FF00224FF4B8
:1032F000E0513E48FDF78AFF00224FF401413C486F
:10330000FDF784FF4FF4005001900120029002204D
:103310000390049001A93448FDF7E0FD12200190CC
:10332000344802900120039001A93148FDF7D6FDF1
:1033300020200190002002900120039001A92C4838
:10334000FDF7CCFD802001902B48029001200390D6
:1033500001A92748FDF7C2FD0120019025480290F0
:103360000120039001A92148FDF7B8FD0420019038
:10337000002002900120039001A91C48FDF7AEFD3A
:103380004FF4E0500190012002900390022004903D
:1033900001A91648FDF7A2FD4FF40140019001205C
:1033A000029003900220049001A91148FDF796FDB8
:1033B000002211460620FDF7B5FF0620FDF7A2FF0B
:1033C000002211460720FDF7ADFF0720FDF79AFF09
:1033D000002211460A20FDF7A5FF0A20FDF792FF03
:1033E00005B000BD0010024000100140000C01407B
:1033F00000080140000031100000111010B50E4807
:103400000E4908604FF48270486000210B488160CB
:10341000C160016141614FF4007181611821C16196
:1034200000210162416281620A21C162FEF7C2FB92
:1034300008B1FDF7D1F910BD00380040000A0020A6
:1034400000B587B00020039004900590069001908D
:10345000029016481649086041F61F404860002156
:103460001348816040F2F311C160002101614161A4
:1034700080218161FEF766FF08B1FDF7ADF94FF4D9
:103480008050039003A90A48FFF720F808B1FDF720
:10349000A3F900200190029001A90548FEF710FF52
:1034A00008B1FDF799F907B000BD0000002C0140FC
:1034B000E00A002000B58DB0002009900A900B9022
:1034C0000C90079008901C216846FCF746FE4FF0D0
:1034D00080401F4908602320486000211C4881600B
:1034E0006321C1600021016180218161FEF72AFF13
:1034F00008B1FDF771F94FF48050099009A91448FB
:10350000FEF7E4FF08B1FDF767F91148FFF7F5F999
:1035100008B1FDF761F900200790089007A90C4851
:10352000FEF7CEFE08B1FDF757F9602000900020AD
:10353000019002900490042269460548FFF75BF968
:1035400008B1FDF749F90248FFF7FEF80DB000BDDC
:10355000280B002000B58DB0002009900A900B9038
:103560000C90079008901C216846FCF7F6FD204857
:10357000204908602320486000211E4881606321A3
:10358000C1600021016180218161FEF7DBFE08B18D
:10359000FDF722F94FF48050099009A91548FEF76C
:1035A00095FF08B1FDF718F91248FFF7A6F908B121
:1035B000FDF712F900200790089007A90D48FEF7C3
:1035C0007FFE08B1FDF708F960200090002001900F
:1035D00002900490002269460648FFF70CF908B1F2
:1035E000FDF7FAF80348FFF7AFF80DB000BD000093
:1035F00000040040700B002010B50B480B49086018
:103600004FF4E1304860002108488160C1600161E9
:103610000C21416100218161C161FFF739FC08B1D2
:10362000FDF7DAF810BD000000380140B80B0020AB
:1036300010B50B480B4908604FF4E1304860002199
:1036400008488160C16001610C21416100218161F4
:10365000C161FFF71DFC08B1FDF7BEF810BD000009
:1036600000440040000C002000BFFEE700BFFEE762
:103670002DE9F04704460D462561D4E90301FCF726
:10368000C9FD60612049206AFCF728FE04D90021A9
:10369000206AFCF719FE02D8E069E06108E0616881
:1036A0006069FCF7BDFD8146E169FCF761FDE06101
:1036B00061692068FCF7B4FD8046E669D4E905013C
:1036C000FCF7A8FD8146A168FCF7AAFD0746314634
:1036D0004046FCF74DFD81463946FCF749FD206226
:1036E0000949206AFCF7FAFD02D20748206206E089
:1036F0000021206AFCF7E8FD01D200202062606909
:10370000A061206ABDE8F0870000C642074A026057
:103710004FF07C524260054A8260C1600022026123
:1037200042618261C261026270470000CDCCCC3D33
:103730007047000008B508490968C9084FF47A7253
:10374000B1FBF2F14143009100BF00BF00994A1E56
:1037500000920029F9D108BD1803002070B5044675
:10376000218900226068FDF751FD206800F0A8F86B
:103770000502206800F0A4F8054321890122606851
:10378000FDF744FD6581012020EA95002074E810D2
:10379000FCF778FD06464FF07A51FCF741FDE060FA
:1037A00070BD000010B50248FEF76AF910BD0000B8
:1037B000000A002070B505466C6A0020E087E086AC
:1037C0002046FEF757F970BD70B505466C6A206853
:1037D000406820F0030021684860606D40F01000F0
:1037E0006065012084F851002046FEF743F970BD62
:1037F00070B50446656A2846FEF745FD70BDF8B50C
:1038000005466C6AFDF708FD06462868006800F06A
:10381000200020282DD02068406820F0200021685A
:1038200048602068406820F0020021684860324605
:103830006421204600F022F818B1606D40F02000AD
:103840006065A06850B900BF002000902068C06883
:10385000009020688068009000BF00BF0020E086D4
:10386000012084F85100606D18B12046FEF702F97E
:10387000F8BD2046FEF706FD00BFF9E7F8B504469F
:103880000E4615463346012202212046009500F0DF
:103890002FF828B1606D40F0200060650320F8BD6E
:1038A0003346002280212046009500F021F828B1FF
:1038B000606D40F0200060650320F0E70020EEE737
:1038C0003EB50446FF2002900020019000BF204634
:1038D000FEF7D1F80128FAD14FF47A70012301AA3A
:1038E00002A900902046FEF72AFB9DF804003EBD89
:1038F0002DE9F84F04460D4690461E46DDF8289007
:10390000FDF78AFCA0EB0900371AFDF785FC82461B
:103910002C480068C0F3CB307843009045E0701C21
:10392000002842D0FDF778FCA0EB0A00B84200D294
:10393000A7BB2068406820F0E0002168486060680C
:10394000B0F5827F0DD1A068B0F5004F03D0A0681C
:10395000B0F5806F05D12068006820F04000216834
:103960000860A06AB0F5005F0DD100BF2068006854
:1039700020F40050216808602068006840F400507E
:103980002168086000BF012084F8510000BF0020BA
:1039900084F8500000BF0320BDE8F88FFFE70098CF
:1039A00000B900270098401E0090206880682840D9
:1039B000A84201D1012000E000204045AFD1002005
:1039C000EAE7000018030020704710B5FDF72AFC55
:1039D00010BD000010B501F0DFF80948006800F0E4
:1039E0009FFDFFF7FFFBFCF749FDFCF74FFDFCF7E0
:1039F0000FFEFCF799FD00210248FFF787FE10BD7E
:103A0000EC020020DC09002070B5FCF7ABFEFCF7EF
:103A10006DFE01F0CFF84848007800287ED00020E5
:103A200045490870FCF742FE0123444A194602202A
:103A300001F0E8F94248028842A1434800F090FDB5
:103A40003E4840A10268414800F08AFD40480078A5
:103A500028B940483BA102683F4800F081FD3F483B
:103A6000007828B93E48028836A13E4800F078FD2B
:103A70000023364A19462A2000F06FFE34480078A9
:103A800008B9012000E000200346334A00218A20C3
:103A900000F063FE00232C4A20212A2000F05DFE66
:103AA0002E48007808B9012000E0002003462D4A86
:103AB00020218A2000F051FE2B494FF4C062086893
:103AC0002A49FEF761FB23480068FCF7E4FB28491C
:103AD000C8601A480068FCF7DEFB254908611748F2
:103AE0000068FCF7D8FB054629462148FFF7C0FDD2
:103AF00004461748007860B11E492046FCF7EEFBEB
:103B000000D21C4C2046FCF7CBFB85B22846FCF7C4
:103B1000E9FC1248007860B9114800E00AE000882A
:103B2000202802DD20200E4908800D480088FCF77F
:103B30009BFD00BF70BD000000000020F0020020CF
:103B4000F802002025640000C6090020D0090020EA
:103B5000FD020020F4020020BC090020FC0200202D
:103B6000FA020020B2090020BC020020B2030020AB
:103B7000DC0900200000C64200B58FB0282105A84E
:103B8000FCF7EBFA14216846FCF7E7FA01200590F0
:103B900000040690002007900120099002200C905C
:103BA000C1030D914FF4E0110E9105A8FDF730FD12
:103BB00008B1FCF711FE0F200090022001900020B8
:103BC00002904FF480600390002004900221684628
:103BD000FDF7FAFB08B1FCF7FFFD0FB000BD704721
:103BE00010B50248FEF7F9FC10BD0000E00A002005
:103BF00010B50248FEF7F1FC10BD0000280B0020B4
:103C000010B50248FEF7E9FC10BD0000700B002063
:103C100010B502681C4B984208D0B0F1804F05D017
:103C20001A4B984202D01A4B984203D122F07002EC
:103C30004B681A43144B984208D0B0F1804F05D01E
:103C4000124B984202D0124B984203D122F4407298
:103C5000CB681A4322F080034C6943EA04020260F5
:103C60008B68C3620B688362074B984201D10B6972
:103C7000036301234361036903F001031BB103697B
:103C800023F00103036110BD002C0140000400403B
:103C90000008004030B501F01F05012404FA05F3C7
:103CA000046A9C430462046A01F01F0502FA05F5E8
:103CB0002C43046230BD30B50C46816821F47F414D
:103CC00042EA032525432943816030BD0A468168C5
:103CD00021F0700142F00703194381607047000032
:103CE00030B5026A056A25F00105056243688469FA
:103CF00024F0700424F003040D682C4322F0020227
:103D00008D682A430D4DA84206D100BF22F008025B
:103D1000CD682A4322F00402084DA84207D123F4BB
:103D2000807323F400734D692B438D692B434360EB
:103D300084614D684563026230BD0000002C014083
:103D400030B5026A056A25F010050562436884698A
:103D500024F4E04424F440740D6844EA052422F07D
:103D600020028D6842EA05120E4DA84207D100BF1D
:103D700022F08002CD6842EA051222F04002094D8D
:103D8000A84209D123F4806323F400634D6943EA18
:103D900085038D6943EA8503436084614D688563CB
:103DA000026230BD002C014030B5026A056A25F47C
:103DB000807505624368C46924F0700424F003042C
:103DC0000D682C4322F400728D6842EA05220F4DE3
:103DD000A84207D100BF22F40062CD6842EA052262
:103DE00022F48062094DA84209D123F4805323F4C0
:103DF00000534D6943EA05138D6943EA0513436097
:103E0000C4614D68C563026230BD0000002C0140F2
:103E100030B5036A056A25F4805505624468C269B5
:103E200022F4E04222F440720D6842EA052223F4B3
:103E300000538D6843EA0533064DA84204D124F4AB
:103E400080444D6944EA85144460C2614D6805644C
:103E5000036230BD002C014030B50B461446026AA7
:103E6000056A25F001050562816921F0F00141EA4A
:103E7000041122F00A021A438161026230BD30B59A
:103E80000B461446026A056A25F010050562816931
:103E900021F4704141EA043122F0A00242EA031207
:103EA0008161026230BD70B505466C6A0020E08514
:103EB000E0842046FEF778FE70BD70B5064600250A
:103EC000746A20684069C0F3C01594F84100212845
:103ED00005D125B10020E084204600F0FBF82068E1
:103EE0004069C0F3801594F84200222805D125B11D
:103EF0000020E085204600F0A7F8606C40F010003C
:103F000060642046FEF750FE70BD70B505466C6AD1
:103F10002868006800F02000002842D1E08500BF3A
:103F200000BF21680C3151E8001F21F48070216826
:103F30000C3141E80002002AF3D100BF00BF00BFEE
:103F40002168143151E8001F21F00100216814316B
:103F500041E80002002AF3D100BF00BF00BF216882
:103F6000143151E8001F21F040002168143141E86C
:103F70000002002AF3D100BF202084F84200206B09
:103F800001280ED100BF00BF21680C3151E8001F8D
:103F900021F0100021680C3141E80002002AF3D121
:103FA00000BF00206063206B012804D1A18D204652
:103FB000FEF7C0FD02E02046FFF768F870BD70B55F
:103FC00005466C6A01206063206B012805D1A08D35
:103FD00041082046FEF7AEFD02E02046FFF757F805
:103FE00070BD70B505466C6A2868006800F0200056
:103FF000F8B90020E08400BF00BF2168143151E807
:10400000001F21F080002168143141E80002002ADD
:10401000F3D100BF00BF00BF21680C3151E8001F81
:1040200041F0400021680C3141E80002002AF3D140
:1040300002E02046FFF7D2F870BD70B50446656A0D
:104040002846FFF7CCF870BD00BF00BF02680C32F5
:1040500052E8002F22F4907102680C3242E80013FB
:10406000002BF3D100BF00BF00BF0268143252E83A
:10407000002F22F001010268143242E80013002BE5
:10408000F3D100BF016B01290ED100BF00BF026850
:104090000C3252E8002F22F0100102680C3242E884
:1040A0000013002BF3D100BF202180F84210002123
:1040B0000163704710B504462068C06820F04000D6
:1040C0002168C860202084F841002046FFF786F868
:1040D000002010BD00BF00BF02680C3252E8002F64
:1040E00022F0C00102680C3242E80013002BF3D129
:1040F00000BF202180F841107047F8B5044694F8BD
:104100004200222875D1A068B0F5805F0CD12069EB
:1041100050B90025A66A20684068C0F308003080C6
:10412000A06A801CA06215E0A56A0026A068B0F510
:10413000805F03D0A06828B9206918B9206840685A
:10414000287004E02068406800F07F002870A06AB2
:10415000401CA062E08D401E80B2E085002846D160
:104160002068C06820F020002168C8602068C0680E
:1041700020F480702168C8602068406920F0010048
:1041800021684861202084F8420000206063206B91
:10419000012826D10020206300BF00BF21680C3118
:1041A00051E8001F21F0100021680C3141E80002A5
:1041B000002AF3D100BF2068006800F0100010282A
:1041C0000AD100BF0020009020680068009020689D
:1041D0004068009000BF00BFA18D2046FEF7AAFCFA
:1041E00002E02046FEF752FF0020F8BD01E000206B
:1041F000FBE70220F9E7000001B54FF6FF7301224B
:1042000069460248FEF744FF08BD0000B80B0020D5
:1042100070B504462168096921F44051E2681143F0
:10422000226811612269A1681143626941EA0205AD
:104230002168C96841F20C62914329432268D16028
:104240002168496921F44071A269114322685161D2
:104250002D4A2168914202D1FDF792F901E0FDF764
:104260007FF900EBC00101EB001162689200B1FB25
:10427000F2F100EBC00202EB001263689B00B2FB9C
:10428000F3F26423B2FBF3F202EBC20303EB02127C
:10429000A1EB8201322202EB01116422B1FBF2F1A7
:1042A00001F0F00100EBC00202EB001263689B001A
:1042B000B2FBF3F26423B2FBF3F201EB021200EB68
:1042C000C00101EB001163689B00B1FBF3F100EB4F
:1042D000C00303EB00136668B600B3FBF6F3642675
:1042E000B3FBF6F303EBC30606EB0313A1EB830169
:1042F000322303EB01116423B1FBF3F101F00F0151
:1043000011442268916070BD0038014077B581B0DA
:10431000044615460298A062A5850020606422200C
:1043200084F842002848E16B88622848E16BC86243
:104330002748E16B08630020E16B486302AE3268F6
:104340002368191D2B46E06BFCF7CEFB00BF002055
:10435000009020680068009020684068009000BFCE
:1043600000BF206970B100BF00BF21680C3151E867
:10437000001F41F4807021680C3141E80002002ADE
:10438000F3D100BF00BF00BF2168143151E8001F06
:1043900041F001002168143141E80002002AF3D104
:1043A00000BF00BF00BF2168143151E8001F41F079
:1043B00040002168143141E80002002AF3D100BF17
:1043C000002004B070BD00000B3F0008BF3F000894
:1043D000BB3E000810B5034699629A85DA85002035
:1043E0005864222083F84200186928B11868C06810
:1043F00040F480701C68E0601868406940F001007B
:104400001C6860611868C06840F020001C68E060AB
:10441000002010BD014691F84100212828D188686C
:10442000B0F5805F0BD1086948B90A6A1088C0F3FB
:1044300008000B685860086A801C086205E00B6A77
:10444000581C086218780B685860C88C401E80B2EF
:10445000C88458B90868C06820F080000B68D8602C
:104460000868C06840F040000B68D86000207047C2
:104470000220FCE72DE9F84304460D46174698460E
:10448000089E31E0701C70B3FCF7C6FEA0EB08007C
:10449000B04200D816B90320BDE8F8832068C06890
:1044A00000F00400F8B1802D1ED0402D1CD02068F3
:1044B0000068C0F3C000B0B100BF002000902068C9
:1044C0000068009020684068009000BF00BF204650
:1044D000FFF7BAFD0820606400BF002084F84000A8
:1044E00000BF0120D8E7FFE7206800682840A84205
:1044F00001D1012000E00020B842C3D00020CBE76A
:1045000010B50248FEF752FB10BD0000B80B0020AA
:1045100010B50248FEF74AFB10BD0000000C002059
:1045200010B5044694F80C0178B14FF4807204F190
:1045300008012068FEF78DFA60680068006820F0C6
:10454000040061680968086006E04FF4807204F1B5
:1045500008012068FEF7B5FA10BD00BFFEE70000B5
:104560000FB4084B10B504A902AA039800F038F85C
:10457000044602A9002000F0DDF8204610BC5DF8DA
:1045800014FB00003547000802480068C0F3022011
:10459000704700000CED00E010B5002804DB0A07AE
:1045A000130E054A135406E00A07140E034A00F0DE
:1045B0000F031B1FD45410BD00E400E018ED00E011
:1045C00002E008C8121F08C1002AFAD170477047DC
:1045D000002001E001C1121F002AFBD1704700003A
:1045E0002DE9FF4F89B09B460446002506E02528AB
:1045F0000BD05A460B999047641C6D1C20780028FC
:10460000F5D10DB02846BDE8F08F0027B84601224D
:10461000474900E0074314F8013F203B02FA03F04A
:104620000842F7D120782E2819D114F8010F47F04D
:1046300004072A280ED06FF02F022078A0F1300155
:1046400009290CD808EB880102EB410100EB0108B5
:10465000641CF2E70A98641C50F8048B0A902078D6
:104660000028CED0642808D0692806D075281ED02E
:104670005A460B9990476D1C58E00A994FF00A0969
:1046800001C90A91002802DA40422D2102E03905D1
:1046900004D52B218DF82010012103E0F90704D067
:1046A0002021F7E78A4608AE0DE00021FAE70A99D3
:1046B0004FF00A0901C90A91F7E74946FBF718FECE
:1046C000303106F8011D0028F7D1ADEB060000F1EE
:1046D0002009780701D44FF00108C84502DDA8EB96
:1046E000090000E000208046002706E008A85A469E
:1046F000C05D0B9990476D1C7F1C5745F6DB04E0AD
:1047000030205A460B9990476D1CB8F10001A8F172
:104710000108F5DC05E016F8010B5A460B999047A5
:104720006D1CB9F10001A9F10109F4DC641C65E715
:10473000092801000A68531C0B601070704730B5DF
:104740000346184603E00C780444E0B2491C141EEA
:10475000A2F10105EAB2F6D130BDF0B505460E462C
:1047600014461F4610E022783B463146284600F0AA
:1047700011F8641CA81DC5B2BA2D05DB0025701CFC
:10478000C6B2072E00DDF0BD20780028EBD100BFB7
:10479000F9E70000F0B5044601EB410604EB86168C
:1047A000761CB5B2002017E043B1A2F1200606EB5B
:1047B00086060B4F3E44365CF64306E0A2F1200627
:1047C00006EB8606064F3E44365C2F18DFF814C011
:1047D0000CF80760461CF0B20528E5DBF0BD0000D0
:1047E000924E0008B203002010B503460C46A018F4
:1047F000411EC81701EB5060C011A1EBC010185C3E
:1048000010BD0246481D00F07F00135C881D00F0BB
:104810007F00105C43EA0023C81D00F07F00105C9D
:1048200043EA004301F1080000F07F00105C43EA16
:10483000006080B27047024601F1090000F07F007D
:10484000105C70470146002007E009B1FF2200E03C
:104850000022044B1A54421C90B2B0F5C06FF4DB36
:1048600070470000B203002010B5C820FCF78AF999
:10487000104A118AD0680122FCF7C8FC1420FCF70A
:1048800081F9E22000F018F8A32000F015F8EB20E1
:1048900000F012F82F2000F00FF8C22000F00CF802
:1048A000812000F009F8B42000F006F8AF2000F0F5
:1048B00003F810BDBC02002001B50A4A118B5069F3
:1048C0000022FCF7A3FC0749C823012208686946B7
:1048D000FDF756FA034A118B50690122FCF796FC4A
:1048E00008BD0000BC020020FCF7A8FCFFF744F95B
:1048F000FEF7BAFCFEF786FCFEF780FDFEF7A0FD92
:10490000FEF7D8FDFEF778FEFEF792FEFEF722FED8
:10491000012251030748FCF779FCFFF75BF80022FE
:104920004FF400510348FCF771FC01E0FFF76CF80D
:10493000FCE700000010014000BF00BF00BF00BF47
:1049400000BFBFF34F8F00BF00BF00BF0948006822
:1049500000F4E06008490843001D0649086000BFF4
:1049600000BF00BFBFF34F8F00BF00BF00BF00BF3D
:1049700000BFFDE70CED00E00000FA05704770474E
:104980002DE9F04104460D460026274600BF05E00C
:1049900017F8010BFFF730FC701CC6B2AE42F7DB14
:1049A000BDE8F08138B505460C460A490094CA882E
:1049B0002B460868802100F002FA0649C9880819C8
:1049C000C11700EB5161C911A0EBC111014AD1809F
:1049D00038BD00001C0300202DE9F04706460F46B5
:1049E0004FF0FF0A00244FF0FF38A1466949CB88F9
:1049F0008A880889802100F0D1F984B2092C02DA72
:104A00005046BDE8F0876348408940BB61498A88C9
:104A100023460868802100F087F90FFA80F8B8F182
:104A2000000F0EDB01205B494881A1F80480CB8890
:104A30008A880889802100F0B1F909280FDA5046E8
:104A4000DFE7544989882144C81EC11700EB516132
:104A5000C911A0EBC1114F4A91805046D1E74D4892
:104A6000008960B94B4A91881068FFF7CAFE49492E
:104A7000088108460089A04201DD5046C1E745484B
:104A80000089444989880844401E80281CDD41482B
:104A90000068404B9B88C1183E488088C0F1800068
:104AA000C2B24846FFF74BFE81463A48007A401EA4
:104AB000384B1B7918448038C2B2364801684846E2
:104AC000FFF73DFE81460CE032480068314B9B8881
:104AD000C1183048007A401EC2B24846FFF72FFE88
:104AE00081462C4B1A8999881868FFF77DFE484546
:104AF0003ED128488088274909890844802816DD46
:104B000024488088C0F1800085B222480068214A8C
:104B1000928881182A463046FBF706FB1D4B1B89FD
:104B20005A1B1C4B70191968FBF7FEFA09E019486B
:104B30000068184B9B88C118164802893046FBF75D
:104B4000F3FA144800893880124A91881068FFF7F8
:104B500072FE82460F4989880E4A12898818C11749
:104B600000EB5161C911A0EBC1110A4A91800AE022
:104B700008498988481CC11700EB5161C911A0EB95
:104B8000C111044A918000200249088148815046A1
:104B900037E700001C030020044800210160416049
:104BA0008160034801490860002070471C03002011
:104BB000280300202DE9F043A1B0FF2059490870D7
:104BC00000200090ADE0694601A8FFF705FF5549B8
:104BD00008700846007813287ED006DC10280FD015
:104BE000112857D0122871D173E0142877D01528D6
:104BF00078D0FF286AD14FF0FF3021B0BDE8F083B4
:104C00009DF811004FF07F4101EA00609DF81010FF
:104C10004FF47F0202EA014108439DF80F1012127F
:104C200002EA012108439DF80E1040EA01049DF8B4
:104C30001500110401EA00609DF81410120202EA46
:104C4000014108439DF81310121202EA01210843A2
:104C50009DF8121040EA01059DF81900110401EABF
:104C600000609DF81810120202EA014108439DF805
:104C70001710121202EA012108439DF8161040EAAB
:104C800001062746A846B1464A464146384600F046
:104C9000F7F845E09DF811004FF07F4101EA006010
:104CA0009DF810104FF47F0202EA014108439DF87D
:104CB0000F10121202EA012108439DF80E1040EA7B
:104CC0000104204600F0CEF82AE005E025E006E0E9
:104CD00008E0FFF753FE23E0FFF751FE20E0FFF767
:104CE0002BFE1DE09DF811004FF07F4101EA0060AE
:104CF0009DF810104FF47F0202EA014108439DF82D
:104D00000F10121202EA012108439DF80E1040EA2A
:104D10000104204600F0BCF802E04FF0FF306CE7E1
:104D200000BF50E701000020F0B505460C46002109
:104D300000BF2BE0501890FBF4F604FB16002E5C2D
:104D40005018401C90FBF4F704FB1700285C46EA5F
:104D500000265018801C90FBF4F704FB1700285C19
:104D600046EA00465018C01C90FBF4F704FB1700FD
:104D7000285C46EA0060084EB04205D1501890FB0E
:104D8000F4F604FB1600F0BD481C81B2D81E884220
:104D9000D0DC4FF0FF30F6E7535A485930B504469F
:104DA00000259A4202DC981A85B202E0881A18445B
:104DB00085B2AC4201DD002030BD2846FCE72DE97C
:104DC000F04705460E4614461F46DDF8208004EBEA
:104DD0000800B0420FDD301B1FFA80F928194A463F
:104DE0003946FBF7A1F9A8EB090207EB09012846B0
:104DF000FBF79AF904E0281942463946FBF794F983
:104E0000BDE8F087F8B506460F4615461C4600205B
:104E10000090A006040E11481149086004F10B002F
:104E2000C1F805000846077146720A220020FFF704
:104E300086FC0090224629469DF80000FFF77FFC83
:104E400000900A210648FFF79BFD21462846FFF700
:104E500097FD01216846FFF793FDF8BD535A485965
:104E6000A803002010B5044604480460012302464C
:104E700019461846FFF7C6FF10BD0000F4020020D7
:104E8000024B186059609A6070470000DC090020EE
:104E90007047000000000000004F000000070007FE
:104EA00000147F147F14242A7F2A122313086462BB
:104EB00036495522500005030000001C2241000025
:104EC00041221C0014083E081408083E080800503F
:104ED0003000000808080808006060000020100882
:104EE00004023E5149453E00427F40004261514923
:104EF000462141454B311814127F1027454545394D
:104F00003C4A494930010179050336494949360689
:104F10004949291E003636000000563600000814A4
:104F200022410014141414140041221408020151E7
:104F30000906324979413E7E1111117E417F49496E
:104F4000363E41414122417F41413E7F49494949E5
:104F50007F090909013E4141497A7F0808087F001D
:104F6000417F41002040413F017F081422417F40A2
:104F70004040407F020C027F7F0608307F3E414167
:104F8000413E7F090909063E4151215E7F091929E9
:104F900046264949493201017F01013F4040403FD7
:104FA0001F2040201F7F2018207F631408146307F0
:104FB000087008076151494543007F4141000204E0
:104FC0000810200041417F000402010204404040DB
:104FD0004040010204000020545454787F48444467
:104FE000383844444428384444487F38545454188A
:104FF00000087E09023C52524C3E7F0804047800AF
:10500000447D40002040443D00007F102844004182
:105010007F40007C047804787C0804047838444499
:1050200044387E0C12120C0C12120C7E7C08040404
:10503000085854545464043F4440203C40403C4091
:105040001C2040201C3C4030403C44281028441C7C
:10505000A0A0907C4464544C4400083641000000F9
:1050600077000000413608000201020402552A556B
:105070002A550000000000000000000000000000B1
:105080000000000038FCFC3800000000000D0D009E
:105090000000000E1E00001E0E00000000000000B8
:1050A000000020F8F820F8F82000020F0F020F0F80
:1050B0000200387C444747CC98000306041C1C07B8
:1050C000030030300080C06030000C060301000C8B
:1050D0000C0080D87CE4BCD84000070F0808070FFC
:1050E000080000101E0E000000000000000000007C
:1050F00000000000F0F80C040000000003070C089A
:1051000000000000040CF8F000000000080C070389
:10511000000080A0E0C0C0E0A08000020301010305
:105120000200008080E0E0808000000000030300B7
:10513000000000000000000000000000101E0E0033
:1051400000008080808080808000000000000000DF
:10515000000000000000000000000000000C0C0037
:10516000000000000080C06030000C060301000059
:105170000000F8FC04C424FCF800070F0908080F1D
:105180000700001018FCFC0000000008080F0F08C2
:105190000800080C84C4643C18000E0F0908080CB1
:1051A0000C00080C444444FCB800040C0808080F28
:1051B0000700C0E0B098FCFC8000000000080F0F62
:1051C00008007C7C4444C4C48400040C0808080F14
:1051D0000700F0F84C4444C08000070F0808080F8F
:1051E00007000C0C0484C47C3C0000000F0F00007E
:1051F0000000B8FC444444FCB800070F0808080F3E
:105200000700387C444444FCF800000808080C07F8
:10521000030000000030300000000000000606001F
:10522000000000000030300000000000080E060002
:1052300000000080C0603018080000000103060C68
:10524000080040404040404040000202020202028A
:1052500002000008183060C0800000080C0603013E
:105260000000181C04C4E43C18000000000D0D00F0
:105270000000F0F808C8C8F8F000070F080B0B0B87
:105280000100E0F0988C98F0E0000F0F0000000F94
:105290000F0004FCFC4444FCB800080F0F08080F82
:1052A0000700F0F80C04040C180003070C08080CA5
:1052B000060004FCFC040CF8F000080F0F080C07B3
:1052C000030004FCFC44E40C1C00080F0F08080C4D
:1052D0000E0004FCFC44E40C1C00080F0F08000046
:1052E0000000F0F80C84848C980003070C08080771
:1052F0000F00FCFC404040FCFC000F0F0000000FC2
:105300000F00000004FCFC0400000000080F0F0860
:10531000000000000004FCFC0400070F08080F0751
:10532000000004FCFCC0F03C0C00080F0F00010F53
:105330000E0004FCFC0400000000080F0F08080C1D
:105340000E00FCFC387038FCFC000F0F0000000F52
:105350000F00FCFC3870E0FCFC000F0F0000000F99
:105360000F00F0F80C040CF8F00003070C080C0711
:10537000030004FCFC44447C3800080F0F080000C4
:105380000000F8FC040404FCF800070F080E3C3F82
:10539000270004FCFC44C4FC3800080F0F00000F79
:1053A0000F00183C6444C49C1800060E0808080F3F
:1053B0000700001C0CFCFC0C1C000000080F0F0870
:1053C0000000FCFC000000FCFC00070F0808080FB0
:1053D0000700FCFC000000FCFC000103060C0603B7
:1053E0000100FCFC008000FCFC00030F0E030E0F0C
:1053F00003000C3CF0C0F03C0C000C0F0300030F4A
:105400000C00003C7CC0C07C3C000000080F0F0872
:1054100000001C0C84C4643C1C000E0F0908080C1E
:105420000E000000FCFC0404000000000F0F080840
:1054300000003870E0C08000000000000001030799
:105440000E0000000404FCFC0000000008080F0F20
:105450000000080C0603060C080000000000000015
:10546000000000000000000000002020202020207C
:1054700020200000030704000000000000000000DE
:10548000000000A0A0A0E0C00000070F0808070F60
:10549000080004FCFC2060C08000080F0708080F0B
:1054A0000700C0E0202020604000070F0808080C1B
:1054B000040080C06024FCFC0000070F0808070FF0
:1054C0000800C0E0A0A0A0E0C000070F0808080C7A
:1054D000040040F8FC440C180000080F0F080000FE
:1054E0000000C0E02020C0E02000276F48487F3F38
:1054F000000004FCFC4020E0C000080F0F00000F7B
:105500000F00000020ECEC0000000000080F0F0866
:1055100000000000000020ECEC0000307040407FF4
:105520003F0004FCFC80C0602000080F0F01030E48
:105530000C00000004FCFC0000000000080F0F0835
:105540000000E0E060C060E0C0000F0F000F000F3F
:105550000F0020E0C02020E0C000000F0F00000F6F
:105560000F00C0E0202020E0C000070F0808080F4F
:10557000070020E0C02020E0C000407F7F48080FE7
:105580000700C0E02020C0E02000070F08487F7F10
:10559000400020E0C0602060C000080F0F0800003D
:1055A000000040E0A02020604000040C09090B0E20
:1055B00004002020F8FC202000000000070F080C49
:1055C0000400E0E00000E0E00000070F0808070F1B
:1055D000080000E0E00000E0E0000003070C0C071A
:1055E0000300E0E0000000E0E000070F0C070C0FF4
:1055F00007002060C080C0602000080C0703070C73
:105600000800E0E0000000E0E000474F4848683F45
:105610001F00606020A0E06020000C0E0B09080C49
:105620000C00004040F8BC040400000000070F0814
:105630000800000000BCBC0000000000000F0F00CC
:105640000000000404BCF84040000008080F0700F8
:105650000000080C040C080C04000000000000000E
:10566000000080C0603060C08000070704040407A9
:10567000070002030405060708090A0B0C0D0E0FAC
:1056800010100102000000000000000001020304ED
:10569000060708090000000001020304BC560008C8
:1056A000000000201C030000B00300082C57000875
:1056B0001C030020B40D0000D04500084113AC01CC
:1056C00052205D080140100839111908B202B20ACF
:1056D0000511F4012C01193042805D0C01400408D1
:1056E000A925091E4013280B2A20381A7008415A90
:1056F000B80801FFA1120C1B20480401FF51420110
:10570000120A1220140C0140320429085A10085AB7
:10571000081C1A080CA280229C0213203240463F2B
:0C572000CDCCCC3D2943395C13127A003B
:04000005080000ED02
:00000001FF
