:020000040800F2
:100000001011002005010008C93B0008093700084D
:10001000C53B000803090008A14C000800000000CF
:10002000000000000000000000000000193F000870
:100030007509000800000000833C00081B3F000811
:100040001F0100081F0100081F0100081F01000810
:100050001F0100081F010008090C0008130C00080C
:100060001F0100081F0100081D0C00081F010008E7
:100070001F0100081F0100080909000819090008EC
:1000800029090008390900081F0100081F0100089C
:100090001F0100081F0100081F0100081F010008C0
:1000A0001F010008354100081F0100081F0100085A
:1000B00045410008554100081F0100081F010008C4
:1000C0001F0100081F0100081F0100081F01000890
:1000D000F53C00082D4C00083D4C00081F010008AD
:1000E0001F0100081F0100081F010008DFF810D0E1
:1000F00000F04CFB00480047AD570008AFF300800C
:10010000101100200648804706480047FEE7FEE73A
:10011000FEE7FEE7FEE7FEE7FEE7FEE7FEE7FEE7B7
:1001200033410008ED000008202A04DB203A21FAC0
:1001300002F00021704721FA02F3D040C2F1200200
:10014000914008431946704740EA01039B0703D0DA
:1001500009E008C9121F08C0042AFAD203E011F806
:10016000013B00F8013B521EF9D27047D2B201E0C8
:1001700000F8012B491EFBD270470022F6E710B5AC
:1001800013460A4604461946FFF7F0FF204610BD05
:10019000421C10F8011B0029FBD1801A7047F0B4F3
:1001A00080EA0102D40F4200B2EB410F02D20246B4
:1001B000084611464A0042D0C30DDDB2C1F3C75212
:1001C000AD1A202D35DAC1F3160141F4000204B155
:1001D0005242C5F1200602FA06F12A411044B3EB5F
:1001E000D05F23D0C4B1012DA0EBC35009DCF0BC1B
:1001F0004FF0004202EAC352DBB200F5000000F00B
:10020000DFB8400000F1807000EBC350A0F18070B7
:1002100040EAD170490009E0490841EAC071A0EB09
:10022000C35000F50000400800EBC350F0BC00F0E4
:10023000BEB86142012202EB4101001BF6E7F0BCAF
:10024000704781F00041AAE780F00040A7E780EA0C
:10025000010210B502F00043400022D04A001FD036
:10026000010E01EB1261C0F35600C2F3560240F4D6
:10027000000042F40002A0FB022000047F391404B5
:1002800000D0401C50EA124001D44000491EC2B2C6
:100290000C0604EBD010401C4008802A02D003E07A
:1002A000002010BD20F00100002900DA00201843D2
:1002B00010BDC10F80EAE0700844CA0796230021F0
:1002C00000F07EB896230022114600F079B820F0A5
:1002D0000040C10DC0F3160040F400007F2901DA90
:1002E00000207047962903DCC1F19601C840704791
:1002F0009639884070470000002801DBC0F10040BB
:10030000002901DBC1F1004181427047002801DB77
:10031000C0F10040002901DBC1F100418842704773
:1003200030B50B46014600202022012409E021FAC5
:1003300002F59D4205D303FA02F5491B04FA02F5C2
:100340002844151EA2F10102F1DC30BD2DE9F05F59
:100350000546002092469B46884606468146402434
:100360001BE02846414647462246FFF7DDFE53463E
:100370005A46C01A914110D311461846224600F041
:1003800017FA2D1A67EB01084F462246012000217B
:1003900000F00EFA17EB00094E41201EA4F10104F3
:1003A000DFDC484631462A464346BDE8F09F002937
:1003B000A8BF7047401C490008BF20F001007047EB
:1003C00010B4B0FA80FC00FA0CF050EA010404BF4B
:1003D00010BC704749B1CCF1200421FA04F411FAA1
:1003E0000CF118BF012121430843A3EB0C01CB1DE5
:1003F0004FEA00614FEA102042BF002010BC704756
:1004000000EBC35010440029A4BF10BC7047401C2F
:10041000490008BF20F0010010BC70472DE9FE4FD5
:10042000804681EA0300C00F0C46009021F0004195
:1004300023F00045B8EB0200A94105D24046214611
:1004400090461C460B46024623F00040104347D01E
:10045000270DC7F30A00C3F30A510290401A019016
:1004600040286BDAC3F3130040F4801B00989246D7
:1004700020B10023D2EB030A63EB0B0B0198594622
:10048000C0F14002504600F093F906460D46504632
:100490005946019A00F09BF910EB080061410024D5
:1004A00087EA115284EAE7731A4340D0009A62B394
:1004B000019A012A4FEA075215DC001B61EB020189
:1004C0004FF0004202EA0752CDE90042001C41F51C
:1004D000801132462B4600F09BF903B0BDE8F08F47
:1004E00040462146F9E7001B61EB0201001C41F583
:1004F000801300185B412018A2F5001747EB030199
:1005000040EAD570B6196D4111E06D084FEA360624
:1005100045EAC0754FEA0752001B61EB0201001C5F
:1005200041F5801149084FEA300000195141324627
:100530002B4603B0BDE8F04F00F05BB900980122F4
:1005400040000023D0EB020263EBE07300982146E9
:100550004FEAE074B8EB000061EB0401E9E783F0D7
:1005600000435BE781F0004158E72DE9FE4F81EA47
:10057000030404F0004421F0004100944FF0000B0C
:1005800023F0004350EA01045ED052EA03045BD03A
:10059000C3F30A54C1F30A552C44A4F2F334019472
:1005A000A0FB0254C1F3130141F48011C3F3130300
:1005B00043F4801301FB024400FB034E840A970AB4
:1005C00044EA815447EA8357A4FB076802958D0AE1
:1005D00005FB07854FEA932C04FB0C542705029D6D
:1005E0004FEA065847EA1637B5EB08056EEB070CDD
:1005F000870E920E47EA811742EA8312A7FB020197
:10060000B6EB0B0164EB00042B0D43EA0C335E18D0
:1006100044EB1C50DA465146E7FB0201C5F31304D4
:100620004FEA0B3343EA14534FEA0432019C43EA86
:100630000603A4F10C040294009CCDE900B400F080
:10064000E7F803B0BDE8F08F00200146F9E72DE997
:10065000F04D81EA030404F0004B21F000451446FC
:100660004FF0000A23F0004150EA050220D054EA7E
:1006700001021DD0C5F30A570246C5F31303C1F3A7
:100680001300C1F30A5640F4801543F48013A7EB1E
:100690000608101BD64608F2FD3873EB050002D39E
:1006A00008F1010801E092185B41B8F1000F03DA8C
:1006B00000200146BDE8F08D00204FF48011064671
:1006C00084460EE0171B73EB050705D3121B63EB83
:1006D000050306434CEA010C49084FEA3000921822
:1006E0005B4150EA0107EDD152EA030012D082EAE1
:1006F000040083EA0501084305D0101BAB4106D274
:100700000122002306E000224FF0004302E06FF0D8
:10071000010253101AEB06004CEB085110EB0A00D3
:1007200041EB0B01BDE8F04D00F063B8C1F30A5294
:10073000C1F3130140F2FF3341F480119A4202DA0F
:1007400000200146704740F233439A42A2F23342FE
:1007500002DC5242FFF7E8BC00F02AB830B5041EB4
:1007600071F1000404DB4FF00044404264EB0101EE
:10077000141E73F1000405DB1C464FF00043524287
:1007800063EB0403994208BF904230BD064C074D0D
:1007900006E0E06840F0010394E807009847103451
:1007A000AC42F6D3FFF7A6FC0C6600082C660008E6
:1007B000202A04DB203A00FA02F100207047914021
:1007C000C2F1200320FA03F3194390407047202A16
:1007D00006DBCB17203A41FA02F043EAE07306E069
:1007E00041FA02F3D040C2F1200291400843194679
:1007F000704710B5141E73F1000408DA401C41F173
:10080000000192185B411A4301D120F0010010BD94
:100810002DE9F04D92469B4611B1B1FA81F202E00A
:10082000B0FA80F220329046FFF7C2FF04460F462E
:1008300040EA0A0041EA0B0153465A46084313D0E6
:10084000114653EA010019D0C8F140025046FFF7A3
:100850006BFC05460E46504659464246FFF7A8FF38
:10086000084305D0012004E020463946BDE8F08D5C
:100870000020054346EAE0762C4337430A98630597
:10088000E40AA0EB08000022FD0A44EA47540A30BB
:1008900002D500200146E9E7010510196941DDE9AB
:1008A000084500196941BDE8F04DA2E770B58C1804
:1008B00010F8015B15F0070301D110F8013B2A1174
:1008C00006D110F8012B03E010F8016B01F8016B61
:1008D0005B1EF9D12B0705D40023521E0DD401F85D
:1008E000013BFAE710F8013BCB1A921C03E013F826
:1008F000015B01F8015B521EF9D5A142D8D300205B
:1009000070BD00BFFEE7000010B5024800F096FA87
:1009100010BD0000980A002010B5024800F08EFAC1
:1009200010BD0000DC0A002010B5024800F086FA75
:1009300010BD0000880C002010B5024800F07EFABF
:1009400010BD0000CC0C002030B590F840500124C0
:10095000AC40C56B6C60046863604468102C04D1C3
:100960000468A2600468E16003E00468A1600468B0
:10097000E26030BD704700000FB410B5C2B045A8AA
:1009800001904FF4807102A8019B449A04F09EF9F3
:100990000020019002A8FFF7FBFB84B24FF6FF7323
:1009A000224602A9034802F007FE42B010BC5DF8DF
:1009B00014FB0000F80B002010B50248006804F09A
:1009C00045F910BD0C00002010B5144A516810689C
:1009D00002F074FA1148406828B900200F490968EC
:1009E0000968486318E00D484068042805D10020D4
:1009F0000A490968096888630EE0084840680828C1
:100A000005D10020054909680968C86304E0002091
:100A1000024909680968086410BD000094000020BC
:100A20000F49496821B90E4909680968486315E00A
:100A30000B494968042904D1094909680968886390
:100A40000CE007494968082904D105490968096883
:100A5000C86303E002490968096808647047000038
:100A60009400002010B504F061FE012004F04CFE5B
:100A70004FF47A7000F032FB002004F045FE0023B2
:100A80001CA21946184604F0CAFD1E494FF4C06264
:100A900008681D4901F024FE4FF4FA7000F01EFBB7
:100AA000002004F031FE17494FF4C062086816496F
:100AB00001F016FE002315A21946184604F0AFFDFA
:100AC000002316A21946602004F0A9FD002317A2F6
:100AD0002021184604F0A3FD002318A22021602045
:100AE00004F09DFD07494FF4C0620868064901F013
:100AF000F7FD10BD4C434420494E4954204F4B2133
:100B000000000000CC020020C20300206E6F77744A
:100B10006D703A202020204300000000646573744B
:100B20006D703A2020202043000000006E6F777324
:100B3000706565643A2020202000000064657373AE
:100B4000706565643A2020202000000010B5144A2A
:100B50005168106802F0B2F91148406828B90020C5
:100B60000F4909680968486318E00D48406804287F
:100B700005D100200A490968096888630EE0084821
:100B80004068082805D10020054909680968C8633C
:100B900004E00020024909680968086410BD0000EB
:100BA0009C0000200F49496821B90E49096809686D
:100BB000486315E00B494968042904D109490968CB
:100BC000096888630CE007494968082904D1054988
:100BD00009680968C86303E002490968096808648C
:100BE000704700009C00002010B5054803F05EF837
:100BF0000349C868FFF76BFB0249086010BD00009D
:100C0000E80200200003002010B5012000F004FCE1
:100C100010BD10B5022000F0FFFB10BD10B5102074
:100C200000F0FAFB10BD00001E48006870B11E48BD
:100C3000007858B91B48008800EBC00101EB001098
:100C40001A49098801EB8000184908801848006893
:100C500088B11848007858B91548006800EBC00101
:100C600001EB00101449096801EBC000124908604B
:100C700000200F4908600B48407F38B10020094927
:100C8000487709480078C043074908700848407F02
:100C900038B100200649487706480078C043054926
:100CA00008707047100000200C0300200A03002089
:100CB000500000200D0300200403002010B500F0B8
:100CC00057FD0446184890F82800012812D116480C
:100CD000406B201A1449498E88420BD901201249D1
:100CE00048770846806B08B1886B804700200E4922
:100CF00081F828000D4890F82800012812D10B48EF
:100D0000406B201A0949498E88420BD901200749B6
:100D100048770846806B08B1886B804700200349FC
:100D200081F8280010BD00001000002050000020B5
:100D300072B600BFFEE70146002291F821000228AA
:100D400008D00420886300BF002081F8200000BF85
:100D5000012070470868006820F00E000B681860DA
:100D60000868006820F001000B68186091F84030B6
:100D700001209840CB6B5860012081F8210000BF12
:100D8000002081F8200000BF1046E2E770B504465D
:100D9000002594F82100022803D00420A063012537
:100DA00048E02068006820F00E0021680860206894
:100DB000006820F00100216808601F49206888420F
:100DC00001D1012026E01C4914312068884201D15C
:100DD00010201FE0184928312068884201D1801571
:100DE00018E015493C312068884201D1801411E097
:100DF000114950312068884202D14FF4803009E017
:100E00000D4964312068884202D14FF4801001E01E
:100E10004FF08070084908394860012084F82100AB
:100E200000BF002084F8200000BF606B10B1204696
:100E3000616B8847284670BD0800024070B50446C3
:100E4000E06B05682068066894F84010042088402C
:100E50002840002846D006F00400002842D0206830
:100E6000006800F0200028B92068006820F0040025
:100E70002168086057492068884201D1042027E092
:100E8000544914312068884201D1402020E0514962
:100E900028312068884201D1001519E04D493C31C4
:100EA0002068884202D14FF4804011E04949503116
:100EB0002068884202D14FF4802009E0454964311E
:100EC0002068884202D14FF4800001E04FF080603A
:100ED000404908394860E06A00287AD02046E16A33
:100EE000884776E094F84010022088402840A0B35C
:100EF00006F0020088B32068006800F0200040B9C6
:100F00002068006820F00A0021680860012084F849
:100F1000210030492068884201D1022028E02D4973
:100F200014312068884201D1202021E0294928314C
:100F30002068884201D140151AE026493C312068DA
:100F4000884202D14FF4005012E02249503120680B
:100F5000884203D14FF400300AE017E01D496431A4
:100F60002068884202D14FF4001001E04FF0007079
:100F700018490839486000BF002084F8200000BFED
:100F8000A06A30B32046A16A884722E094F8401056
:100F9000082088402840E0B106F00800C8B1206869
:100FA000006820F00E002168086094F840100120CD
:100FB0008840E16B48600120A06384F8210000BFF5
:100FC000002084F8200000BF206B10B12046216B68
:100FD000884770BD080002400146002209B901207F
:100FE0007047164B0868C01A1423B0FBF3F080005A
:100FF000086412480838C863022081F82100086894
:10100000026843F6F0708243D1E901031843CB68CC
:1010100018430B6918434B6918438B691843CB6914
:10102000184302430868026000208863012081F8A9
:101030002100002081F8200000BFD1E70800024015
:101040002DE9F04104460D4616461F464FF00008B4
:1010500000BF94F82000012802D10220BDE8F081F1
:10106000012084F8200000BF94F8210001282CD131
:10107000022084F821000020A0632068006820F08E
:101080000100216808603B46324629462046FFF7AA
:101090005BFCE06A30B12068006840F00E00216817
:1010A00008600BE02068006820F0040021680860F8
:1010B0002068006840F00A00216808602068006825
:1010C00040F001002168086006E000BF002084F8BD
:1010D000200000BF4FF002084046BFE770B504464D
:1010E00000F046FB06462546681C10B1044800780F
:1010F000054400BF00F03CFB801BA842FAD370BD42
:101100002403002070B5044600F032FBBF4908609C
:10111000BF480089A04240D1BD4A1189506800F003
:1011200019FB68B9BA48807E50B90120B849887661
:101130000A46118AD06800F00DFBB549C8762CE04C
:10114000B34A1189506800F005FB012825D1B04849
:10115000807E012821D10020AD4988760A46118A77
:10116000D06800F0F7FAAA4908770846C07E01283F
:1011700007D10846007F20B908460068401C086077
:101180000BE0A348C07E40B9A148007F012804D1EC
:101190009F480068401E9E4908609D48008BA04201
:1011A00074D19B48006A99490968081A9849898C42
:1011B000884200D270BD95480068954908620A4689
:1011C000118B506900F0C6FA05465DB9904890F859
:1011D000270038B901208E4981F827008B48006824
:1011E000C86252E0012D50D1894890F827000128AB
:1011F0004BD10020864981F827000846C06A834900
:101200000968081A8249098E88420BD30320804955
:101210004877002081F828000846806BA8B3886BC7
:10122000804732E07A4890F82800401C784981F8DD
:101230002800084690F82800012803D17348006868
:10124000486322E0724890F8280002281DD17048B7
:10125000406B6E490968081A6D49498E884208D268
:1012600002206B4948770846806B50B1886B8047F5
:1012700007E00120664948770846806B08B1886B13
:1012800080470020624981F8280000BF614800893A
:10129000A04240D15F4A1189506800F05BFA68B9FA
:1012A0005C48807E50B901205A4988760A46118AE6
:1012B000D06800F04FFA5749C8762CE0554A11899A
:1012C000506800F047FA012825D15248807E012855
:1012D00021D100204F4988760A46118AD06800F053
:1012E00039FA4C4908770846C07E012807D10846DC
:1012F000007F20B908460068401C08600BE04548A4
:10130000C07E40B94348007F012804D141480068AD
:10131000401E404908603F48008BA04274D13D48C0
:10132000006A3A490968081A3A49898C884200D209
:1013300040E736480068374908620A46118B506911
:1013400000F008FA05465DB9324890F8270038B930
:101350000120304981F827002C480068C86252E01B
:10136000012D50D12B4890F8270001284BD10020A7
:10137000284981F827000846C06A24490968081AE4
:101380002449098E88420BD3032022494877002044
:1013900081F828000846806BA8B3886B804732E04C
:1013A0001C4890F82800401C1A4981F8280008467B
:1013B00090F82800012803D114480068486322E00F
:1013C000144890F8280002281DD11248406B0F499C
:1013D0000968081A0F49498E884208D202200D492F
:1013E00048770846806B50B1886B804707E0012042
:1013F000084948770846806B08B1886B8047002011
:10140000044981F8280000BF00BFD3E69000002007
:10141000100000205000002010B504460448006869
:10142000204020B1024804602046FFF76BFE10BD4B
:10143000140401402DE9F8470346002294466EE16A
:101440004FF0010808FA02F4D1F8008008EA04001D
:10145000A0427DD1DFF8DCA2D1F80480A8EB0A0914
:10146000D0453AD014DCB8F1030F50D009DCB8F104
:10147000000F31D0B8F1010F1CD0B8F1020F49D1E3
:1014800020E0B8F1110F18D0B8F1120F42D11EE0D0
:10149000B9F5881F25D006DCB9F5803F20D0B9F515
:1014A000801F37D11AE0B9F5001F18D0B9F5041F15
:1014B00030D117E0D1F80CC02DE0D1F80C8008F144
:1014C000040C28E0D1F80C8008F1080C23E0D1F8D6
:1014D0000C8008F10C0C1EE000BF00BF00BF00BF75
:1014E00000BF00BFD1F80880B8F1000F02D14FF063
:1014F000040C0BE0D1F80880B8F1010F03D14FF0D4
:10150000080C1C6102E04FF0080C5C6103E04FF036
:10151000000C00E000BF00BFFF2801D8984601E0A2
:1015200003F104084646FF2802D84FEA820803E088
:10153000A2F108084FEA88084746D6F800804FF025
:101540000F0909FA07F928EA09080CFA07F900E077
:1015500088E048EA0908C6F80080D1F8048008F05D
:101560008058B8F1805F7DD100BFDFF8CC81D8F81A
:10157000188048F00108DFF8C091C9F81880C84603
:10158000D8F8188008F00108CDF8008000BF00BF2F
:101590004FEAB9384FEA920958F829504FEA827851
:1015A0004FEA18794FF00F0808FA09F825EA0805FC
:1015B000DFF88881434502D14FF0000816E0DFF8DC
:1015C0008081434502D14FF001080FE0DFF87481BC
:1015D000434502D14FF0020808E0DFF86C81434533
:1015E00002D14FF0030801E04FF004084FEA82797E
:1015F0004FEA197908FA09F848EA0505DFF84C813D
:101600004FEA920948F82950D1F8048008F480186C
:10161000B8F5801F0AD1DFF83881D8F8008048EA91
:101620000008DFF82C91C9F8008009E0DFF820817C
:10163000D8F8008028EA0008DFF81491C9F8008083
:10164000D1F8048008F40018B8F5001F10D1DFF8B5
:10165000008108F10408D8F8008048EA0008DFF8A3
:10166000F09000E05AE009F10409C9F800800DE0AB
:10167000DFF8DC8008F10408D8F8008028EA0008C8
:10168000DFF8CC9009F10409C9F80080D1F8048092
:1016900008F40038B8F5003F0ED1DFF8B480A8F1A7
:1016A0000408D8F8008048EA0008DFF8A490A9F1FF
:1016B0000409C9F800800DE0DFF89480A8F104085F
:1016C000D8F8008028EA0008DFF88490A9F104091E
:1016D000C9F80080D1F8048008F48038B8F5803F5C
:1016E0000ED1DFF86C80A8F10808D8F8008048EA2D
:1016F0000008DFF85C90A9F10809C9F800800DE046
:10170000DFF84C80A8F10808D8F8008028EA000823
:10171000DFF83C90A9F10809C9F80080521CD1F803
:10172000008028FA02F8B8F1000F7FF489AEBDE816
:10173000F88700000000111000100240000801406E
:10174000000C01400010014000140140080001405D
:1017500008040140024693680B400BB1012000E0F1
:10176000002070470AB1016101E00B04036170477A
:1017700001480068704700001C030020034800680F
:101780000349097808440149086070471C03002098
:101790002403002010B50848006840F010000649F6
:1017A0000860032000F0A8F8002000F007F800F01F
:1017B0002BF8002010BD00000020024070B5044648
:1017C0000E4800784FF47A71B1FBF0F00C490968CB
:1017D000B1FBF0F5284601F003F808B1012070BD17
:1017E000102C07D200222146501E00F047F8054871
:1017F000046001E00120F2E70020F0E7240300206C
:10180000280300202003002008B500BF114880698C
:1018100040F001000F4988610846806900F001002E
:10182000009000BF00BF00BF0846C06940F0805074
:10183000C8610846C06900F08050009000BF00BF3A
:1018400000BF0549486820F0E06040F00070486043
:1018500000BF08BD001002400000014001460846DC
:10186000002809DB00F01F0301229A4043099B0076
:1018700003F1E023C3F8002100BF70472DE9F05FBA
:1018800080460D461646002703F03AFA07463946C9
:101890002A46334601F00700C0F1070ABAF1040FE7
:1018A00002D94FF0040A01E0C0F1070AD14600F165
:1018B000040ABAF1070F02D24FF0000A01E0A0F1CA
:1018C000030AD4464FF0010A0AFA09FAAAF1010AFA
:1018D0000AEA020A0AFA0CFA4FF0010B0BFA0CFBA7
:1018E000ABF1010B0BEA030B4AEA0B04214640461D
:1018F00003F00EFABDE8F09F00BF00F00702064BB0
:1019000019684FF6FF031940044B0B4343EA0221C9
:10191000014B196000BF70470CED00E00000FA05B4
:1019200070B504460D460CB9012070BD5A480068D8
:1019300000F00700A8420ED25748006820F00700C8
:101940002843554908600846006800F00700A8428F
:1019500001D00120E9E7207800F0020002281DD123
:10196000207800F00400042805D14C48406840F479
:10197000E0604A494860207800F00800082805D156
:101980004648406840F460504449486043484068D5
:1019900020F0F000A168084340494860207800F03A
:1019A000010078B36068012806D13C48006800F463
:1019B000003090B90120B8E76068022806D13748A6
:1019C000006800F0007040B90120AEE733480068BD
:1019D00000F0020008B90120A7E73048406820F075
:1019E0000300616808432D494860FFF7C1FE0646C1
:1019F00009E0FFF7BDFE801B41F28831884202D921
:101A0000032092E707E02548406800F00C00616879
:101A1000B0EB810FEDD12048006800F00700A8422C
:101A20000ED91D48006820F0070028431A490860B5
:101A30000846006800F00700A84201D0012074E7C2
:101A4000207800F00400042807D11448406820F4EE
:101A5000E060E168084311494860207800F0080020
:101A6000082808D10D48406820F46050216940EAF8
:101A7000C1000A49486000F03FF808494968C1F3CD
:101A80000311074A515CC8400649086006480068CF
:101A9000FFF794FE002048E70020024000100240BB
:101AA0004865000828030020200300200148006842
:101AB000704700002803002000B5FFF7F7FF044936
:101AC0004968C1F30221034A515CC84000BD0000CF
:101AD000001002405865000800B5FFF7E7FF044911
:101AE0004968C1F3C221034A515CC84000BD0000EF
:101AF000001002405865000870B500210022002443
:101B000000230020134D696801F00C05F5B1042D88
:101B100002D0082D19D101E00F4819E00F4DC1F393
:101B20008346AB5D01F4803555B10A4D6D68C5F350
:101B300040450B4E725D084D5D43B5FBF2F402E08B
:101B4000084D03FB05F4204602E000BF024800BF39
:101B500000BF70BD0010024000127A003665000818
:101B60004665000800093D00F8B504460CB901209F
:101B7000F8BD207800F00100002878D0F8484068CF
:101B800000F00C0004280CD0F548406800F00C0070
:101B9000082811D1F248406800F48030B0F5803F49
:101BA0000AD1EF48006800F4003000285FD0606878
:101BB00000285CD10120DBE700BF6068B0F5803F02
:101BC00006D1E748006840F48030E549086028E025
:101BD000606858B9E248006820F48030E049086045
:101BE0000846006820F4802008601AE06068B0F5BC
:101BF000A02F0BD1DA48006840F48020D849086053
:101C00000846006840F4803008600AE0D448006864
:101C100020F48030D24908600846006820F4802013
:101C2000086000BF606888B1FFF7A2FD054606E0C6
:101C3000FFF79EFD401B642801D9032098E7C848A0
:101C4000006800F400300028F2D010E0FFF790FDAB
:101C5000054606E0FFF78CFD401B642801D90320F0
:101C600086E7BF48006800F400300028F2D12078F1
:101C700000F00200022857D1B948406800F00C007B
:101C800050B1B748406800F00C00082818D1B4489B
:101C9000406800F4803098B9B148006800F0020054
:101CA00020B12069012801D0012061E7AC4800681B
:101CB00020F0F800616940EAC100A949086033E0FA
:101CC0002069E8B10120A7490860FFF751FD0546EA
:101CD00006E0FFF74DFD401B022801D9032047E72E
:101CE0009F48006800F002000028F2D09C4800687D
:101CF00020F0F800616940EAC1009949086013E0EA
:101D0000002098490860FFF733FD054606E0FFF71D
:101D10002FFD401B022801D9032029E790480068C5
:101D200000F002000028F2D1207800F00800082816
:101D30002DD1A069B8B101208B490860FFF718FDCB
:101D4000054606E0FFF714FD401B022801D90320D9
:101D50000EE78348406A00F002000028F2D001201C
:101D600001F090FF13E000207F490860FFF700FDBD
:101D7000054606E0FFF7FCFC401B022801D90320C2
:101D8000F6E67748406A00F002000028F2D1207899
:101D900000F00400042873D100277148C06900F0E6
:101DA000805070B900BF6E48C06940F080506C49E7
:101DB000C8610846C06900F08050009000BF00BFB5
:101DC00001276A48006800F48070B0B9674800686D
:101DD00040F4807065490860FFF7CAFC054606E0DC
:101DE000FFF7C6FC401B642801D90320C0E65F480A
:101DF000006800F480700028F2D000BFE06801287D
:101E000006D15748006A40F001005549086227E0B2
:101E1000E06858B95248006A20F001005049086251
:101E20000846006A20F00400086219E0E06805280E
:101E30000BD14B48006A40F004004949086208464B
:101E4000006A40F0010008620AE04548006A20F09C
:101E50000100434908620846006A20F00400086255
:101E600000BFE068A0B1FFF783FC054609E0FFF77B
:101E70007FFC401B41F28831884202D9032077E67B
:101E800022E03748006A00F002000028EFD012E09C
:101E9000FFF76EFC054608E0FFF76AFC401B41F2C5
:101EA0008831884201D9032062E62D48006A00F09B
:101EB00002000028F0D1012F05D12948C06920F087
:101EC00080502749C86100BFE069C8B32448406812
:101ED00000F00C00082860D0E069022848D10020FA
:101EE00020490866FFF744FC054606E0FFF740FC82
:101EF000401B022801D903203AE61948006800F087
:101F000000700028F2D1206AB0F5803F07D1144854
:101F1000406820F40030A168084311494860D4E9C2
:101F2000080108430E49496821F4741108430C491B
:101F3000486001200B490866FFF71AFC054607E0D8
:101F40003DE0FFF715FC401B022801D903200FE6F6
:101F50000348006800F000700028F2D02FE0000075
:101F600000100240000042428004424200700040E3
:101F7000002014490866FFF7FBFB054606E0FFF763
:101F8000F7FB401B022801D90320F1E50E48006849
:101F900000F000700028F2D111E0E069012800D1C2
:101FA000E6E50948466806F48031206A814204D19A
:101FB00006F47011606A814201D00120D8E500204A
:101FC000D6E5000000004242001002407047014682
:101FD00091F8510070470000F8B504462068466843
:101FE00020688568C5F3801048B905F0010030B15C
:101FF000C6F3801018B12046216C8847F8BDC5F3A0
:10200000400030B1C6F3C01018B12046616C88475B
:10201000F4E7C5F3401018B9C5F38010002871D05B
:10202000C6F3401000286DD0C5F38010F0B194F8CD
:10203000510003280ED0606D40F00400606500BFC1
:10204000002000902068C0680090206880680090A0
:1020500000BF0BE000BF002000902068C068009027
:1020600020688068009000BF00BFC7E7C5F340103C
:1020700088B1606D40F00100606500BF00200090F5
:102080002068806800902068006820F04000216887
:10209000086000BF00BF606D70B32068406820F02A
:1020A000E00021684860012084F8510006F0020039
:1020B00010B906F0010000B32068406820F003006A
:1020C00021684860E06C50B10F48E16C4863E06CF7
:1020D000FEF75CFE18B1606D40F040006065A06CDA
:1020E00050B10948A16C4863A06CFEF74FFE18B1CF
:1020F000606D40F04000606502E02046FFF766FF3B
:102100007CE7FFE700BF79E7053D000810B504460E
:102110000CB9012010BD606A38B96068B0F5827FE3
:1021200000D105E00021E16102E00021216161614F
:102130000021A16294F8510028B9002084F85000D1
:10214000204600F043F8022084F85100206800681F
:1021500020F0400021680860A08800F48270218986
:1021600001F404410843A18901F400610843217C82
:1021700001F002010843217D01F001010843218B98
:1021800001F400710843217F01F038010843202148
:10219000095D01F080010843218D01F400510843DD
:1021A000216808600421A06901EA104021684860A4
:1021B0002068C06920F400602168C8610020606563
:1021C000012084F851000020A4E7000010B586B07B
:1021D000044600200290039004900590384920683E
:1021E00088426AD100BF3748C06940F48040354911
:1021F000C8610846C06900F48040019000BF00BF7C
:1022000000BF0846806940F0080088610846806980
:1022100000F00800019000BF00BF4FF42040029082
:10222000022003900320059002A92748FFF702F936
:102230004FF48040029000200390049002A92248AD
:10224000FFF7F8F821482249086000204860002183
:102250001F4881608021C16000210161416181616D
:10226000C161FEF7B9FE08B1FEF762FD00BF184874
:10227000E064446200BF154814301649086010201D
:1022800048600021134881608021C1600021016104
:1022900041618161C161FEF79FFE08B1FEF748FD13
:1022A00000BF0C48A064446200BF002211462420F5
:1022B000FFF7E4FA2420FFF7D1FA06B010BD0000C2
:1022C0000038004000100240000C01404400024071
:1022D000980A0020DC0A00202DE9F84304460F4646
:1022E00016461D46FFF744FA8046B14694F8510061
:1022F000012802D00220BDE8F88307B10EB9012001
:10230000F9E700BF94F85000012801D10220F2E75C
:10231000012084F8500000BF032084F85100002001
:1023200060652763A686E686A063A087E087606471
:102330002064A068B0F5004F0BD12068006820F041
:102340004000216808602068006840F480402168EF
:1023500008602068006800F04000402805D0206830
:10236000006840F0400021680860E068B0F5006F48
:1023700037D1606810B1B9F1010F09D1206B008825
:102380002168C860206B801C2063E08E401EE086C0
:1023900023E02068806800F0020002280AD1206B48
:1023A00000882168C860206B801C2063E08E401E7E
:1023B000E08612E0FFF7DCF9A0EB0800A84201D3A9
:1023C000681C00B94DB9012084F8510000BF0020FD
:1023D00084F8500000BF03208DE7E08E0028D8D19C
:1023E00036E0606810B1B9F1010F09D1206B0078B7
:1023F00021680873206B401C2063E08E401EE0863D
:1024000023E02068806800F0020002280AD1206BD7
:10241000007821680873206B401C2063E08E401E0A
:10242000E08612E0FFF7A4F9A0EB0800A84201D370
:10243000681C00B94DB9012084F8510000BF00208C
:1024400084F8500000BF032055E7E08E0028D8D163
:1024500042462946204601F0B9FC08B120206065BB
:10246000A06850B900BF002000902068C0680090AC
:1024700020688068009000BF00BF012084F85100F0
:1024800000BF002084F8500000BF606D08B101203B
:1024900031E700202FE72DE9FE4F04460F46904616
:1024A0001D460C9E01200190FFF762F9814694F8C9
:1024B00051B060680290AA46BBF1010F0BD00298A0
:1024C000B0F5827F04D1A06810B9BBF1040F02D02F
:1024D0000220BDE8FE8F1FB1B8F1000F00D00DB98A
:1024E0000120F6E700BF94F85000012801D1022036
:1024F000EFE7012084F8500000BF94F85100042851
:1025000002D0052084F8510000206065C4F83880AE
:10251000E587A5872763E586A58620646064206833
:10252000006800F04000402805D02068006840F0B6
:10253000400021680860E068B0F5006F52D1606823
:1025400010B1BAF1010F09D1206B00882168C86071
:10255000206B801C2063E08E401EE0863BE02068FC
:10256000806800F00200022810D1E08E70B101985E
:1025700001280BD1206B00882168C860206B801C6B
:102580002063E08E401EE086002001902068806875
:1025900000F0010068B1E08F58B12068C068A16BFD
:1025A0000880A06B801CA063E08F401EE0870120A4
:1025B0000190FFF7DDF8A0EB0900B0420BD3701CCF
:1025C00048B1012084F8510000BF002084F8500079
:1025D00000BF03207DE7E08E0028C0D1E08F0028F7
:1025E000BDD152E0606810B1BAF1010F09D1206B82
:1025F000007821680873206B401C2063E08E401E29
:10260000E0863CE02068806800F00200022810D1DB
:10261000E08E70B1019801280BD1206B0078216801
:102620000873206B401C2063E08E401EE086002073
:1026300001902068806800F0010068B1E08F58B117
:102640002068C068A16B0870A06B401CA063E08F7D
:10265000401EE08701200190FFF78AF8A0EB0900F7
:10266000B04201D3701C00B94EB9012084F851006A
:1026700000BF002084F8500000BF032029E7E08E4F
:102680000028BFD1E08F0028BCD14A463146204601
:1026900001F09CFB40B12020606500BF002084F861
:1026A000500000BF012014E7A06850B900BF00200F
:1026B00000902068C068009020688068009000BF8B
:1026C00000BF012084F8510000BF002084F85000B2
:1026D00000BF606D08B10120FBE60020F9E60000B4
:1026E0002DE9F04104460E46154694F851000128A4
:1026F00002D00220BDE8F08106B10DB90120F9E752
:1027000000BF94F85000012801D10220F2E7012017
:1027100084F8500000BF032084F851000020606559
:102720002663A586E586A06360642064A087E087B1
:10273000A068B0F5004F0BD12068006820F0400081
:10274000216808602068006840F4804021680860C3
:102750001F48A16CC8621F48A16C88621E48A16C0A
:1027600008630020A16C4863E38E276807F10C0220
:10277000216BA06CFEF764FC50B1606D40F010005E
:10278000606500BF002084F8500000BF0120B1E761
:102790002068006800F04000402805D020680068EC
:1027A00040F040002168086000BF002084F850001D
:1027B00000BF2068406840F0200021684860206821
:1027C000406840F0020021684860002092E7000065
:1027D000413D00084F3D0008193D00087047704713
:1027E00070B504462546681EB0F1807F01D30120F4
:1027F0000FE0681E4FF0E02148610F214FF0FF30DD
:1028000002F086FA00204FF0E0218861072008617D
:10281000002070BD7047704730B502460B4600BFC0
:1028200092F83C00012801D1022030BD012082F83D
:102830003C0000BF022082F83D0010684468106828
:10284000816824F070041868044310684460104DD7
:102850001068A8420BD01068B0F1804F07D00D4D22
:102860001068A84203D00C4D1068A84205D121F091
:1028700080015868014310688160012082F83D00A2
:1028800000BF002082F83C0000BF00BFCDE7000081
:10289000002C0140000400400008004010B5044630
:1028A0000CB9012010BD94F83D0028B9002084F82F
:1028B0003C00204600F026F8022084F83D00211D4F
:1028C000206801F04FFC012084F8460000BF84F826
:1028D0003E0001213F200155402001554120015576
:1028E00000BF00BF012084F842004320015544206E
:1028F00001554520015500BF012084F83D0000200E
:10290000D0E7000038B5044628492068884216D12F
:1029100000BF2748806940F4006025498861084667
:10292000806900F40060009000BF00BF00221146E3
:102930001920FEF7A3FF1920FEF790FF34E020686E
:10294000B0F1804F16D100BF1948C06940F00100B6
:102950001749C8610846C06900F00100009000BF37
:1029600000BF002211461C20FEF788FF1C20FEF746
:1029700075FF19E00F492068884215D100BF0C4847
:10298000C06940F002000A49C8610846C06900F009
:102990000200009000BF00BF002211461D20FEF77C
:1029A0006DFF1D20FEF75AFF38BD0000002C0140CE
:1029B0000010024000040040014691F83D0001284B
:1029C00001D001207047022081F83D00124B0868B9
:1029D00098420BD00868B0F1804F07D00F4B0868C1
:1029E000984203D00E4B086898420CD10868806862
:1029F00000F00702062A0CD00868006840F00100C9
:102A00000B68186005E00868006840F001000B687A
:102A100018600020D6E70000002C014000040040B0
:102A2000000800402DE9F04104460D46002700BF94
:102A300094F83C00012802D10220BDE8F081012079
:102A400084F83C0000BF022084F83D0020688668BE
:102A500026F0770626F47F4620688660286850288E
:102A600033D00CDC202850D004DC00284BD01028B8
:102A700051D149E0302849D040284CD139E0602874
:102A80002DD0702807D0B0F5805F03D0B0F5005F7F
:102A900041D10DE041E0D5E902136A68206801F0F8
:102AA000B4FB2068866846F077062068866034E0CC
:102AB000D5E902136A68206801F0A7FB20688068E6
:102AC00040F480402168886027E0EA6869682068EF
:102AD00001F0C0FC5021206801F0A2FB1DE0EA6873
:102AE0006968206801F0C9FC6021206801F098FB4A
:102AF00013E0EA686968206801F0ACFC40212068B6
:102B000001F08EFB09E000BF00BF00BF296820680C
:102B100001F086FB01E0012700BF00BF012084F81F
:102B20003D0000BF002084F83C0000BF384684E729
:102B3000704770B504462068C5682068066906F0CD
:102B40000200022819D105F00200022815D1401F09
:102B500021680861012020772068806900F0030067
:102B600018B12046FFF7E4FF05E0204600F0EEF83C
:102B7000204600F0A2F90020207706F00400042887
:102B800019D105F00400042815D1C043216808615B
:102B9000022020772068806900F4407018B1204638
:102BA000FFF7C6FF05E0204600F0D0F8204600F011
:102BB00084F90020207706F00800082819D105F0D4
:102BC0000800082815D1C043216808610420207737
:102BD0002068C06900F0030018B12046FFF7A8FF85
:102BE00005E0204600F0B2F8204600F066F900202B
:102BF000207706F01000102819D105F010001028D9
:102C000015D1C04321680861082020772068C06979
:102C100000F4407018B12046FFF78AFF05E0204617
:102C200000F094F8204600F048F90020207706F0E4
:102C3000010048B105F0010030B16FF001002168DA
:102C40000861204600F0A4F906F08000802809D130
:102C500005F08000802805D1C04321680861204626
:102C6000FFF7D8FD06F04000402809D105F04000EC
:102C7000402805D1C04321680861204600F09EF934
:102C800006F02000202809D105F02000202805D1D9
:102C9000C043216808612046FFF7BDFD70BD0000FC
:102CA00010B586B004460020029003900490059071
:102CB0002068B0F1804F21D100BF1F48806940F0EB
:102CC00008001D4988610846806900F008000190ED
:102CD00000BF00BF0820029002200390059002A9C7
:102CE0001648FEF7A7FB00BF1549486820F440705E
:102CF00040F0E06040F4807048601AE011492068BC
:102D0000884216D100BF0C48806940F004000A498F
:102D100088610846806900F00400019000BF00BF90
:102D20004020029002200390059002A90648FEF779
:102D300081FB06B010BD000000100240000C0140F5
:102D400000000140000400400008014070472DE9E8
:102D5000F04104460D461646002700BF94F83C009B
:102D6000012802D10220BDE8F081012084F83C0056
:102D700000BF36B1042E1BD0082E31D00C2E5ED1F0
:102D800045E02946206801F055FA2068806940F046
:102D90000800216888612068806920F004002168AB
:102DA000886120688069296908432168886148E052
:102DB0002946206801F06EFA2068806940F40060BE
:102DC000216888612068806920F4806021688861BA
:102DD00020688069296940EA01202168886130E023
:102DE0002946206801F08AFA2068C06940F008008E
:102DF0002168C8612068C06920F004002168C861AA
:102E00002068C069296908432168C86119E029461A
:102E1000206801F0A7FA2068C06940F400602168CA
:102E2000C8612068C06920F480602168C86120689A
:102E3000C069296940EA01202168C86101E00127D1
:102E400000BF00BF00BF002084F83C0000BF384630
:102E500089E710B504460CB9012010BD94F83D0077
:102E600028B9002084F83C00204600F025F8022014
:102E700084F83D00211D206801F074F9012084F8D8
:102E8000460000BF84F83E0001213F20015540204C
:102E900001554120015500BF00BF012084F84200C8
:102EA00043200155442001554520015500BF012014
:102EB00084F83D000020D0E77047704770B50446A5
:102EC0000D4615B994F83E000BE0042D02D13F20C9
:102ED000005D06E0082D02D14020005D01E04120A8
:102EE000005D012801D0012070BD1DB9022084F8C9
:102EF0003E000EE0042D03D102213F20015508E0E1
:102F0000082D03D102214020015502E00221412079
:102F1000015501222946206801F066F91949206807
:102F2000884201D1012000E0002028B12068406CD7
:102F300040F40040216848641249206888420BD060
:102F40002068B0F1804F07D00F492068884203D035
:102F50000E49206888420CD12068806800F007067E
:102F6000062E0CD02068006840F00100216808603F
:102F700005E02068006840F001002168086000203A
:102F8000B2E70000002C01400004004000080040AF
:102F900070B5054600240CE0074800EB0410C0683B
:102FA00028B1054800EB0410C16828468847601C1A
:102FB000C4B2012CF0DB70BD100A00207047F8B5D8
:102FC00004460D46164694F8420020282DD105B13E
:102FD0000EB90120F8BD0120206300206063324655
:102FE0002946204601F028FD0746206B012819D10B
:102FF00000BF0020009020680068009020684068B2
:10300000009000BF00BF00BF00BF21680C3151E835
:10301000001F41F0100021680C3141E80002002A35
:10302000F3D100E001273846D4E70220D2E7F8B513
:1030300004460E46174694F8420020282ED106B1C9
:103040000FB90120F8BD01202063002060633A46DB
:103050003146204601F054FD0546EDB9206B0128AC
:1030600019D100BF002000902068006800902068FF
:103070004068009000BF00BF00BF00BF21680C3156
:1030800051E8001F41F0100021680C3141E80002B6
:10309000002AF3D100E001252846D3E70220D1E73A
:1030A00070B505460E4600240DE0084800EB0410FC
:1030B000C06830B1054800EB04103146C2682846AC
:1030C0009047601CC4B2022CEFDB70BD200A0020C8
:1030D000704700002DE9F84F044620680568206815
:1030E000C668206847694FF00009CA4605F00F0915
:1030F000B9F1000F0AD105F0200038B106F0200028
:1031000020B1204601F090FBBDE8F88FB9F1000F27
:103110007BD007F0010018B906F49070002874D035
:1031200005F0010030B106F4807018B1606C40F019
:103130000100606405F0040030B107F0010018B12F
:10314000606C40F00200606405F0020030B107F0EE
:10315000010018B1606C40F00400606405F00800E4
:1031600048B106F0200010B907F0010018B1606CFA
:1031700040F008006064606C002845D005F0200035
:1031800028B106F0200010B1204601F04DFB206868
:103190004069C0F3801A606C00F0080010B9BAF101
:1031A000000F2CD0204601F0E6FA2068406900F0BC
:1031B000400000B300BF00BF2168143151E8001F78
:1031C00021F040002168143141E80002002AF3D1C7
:1031D00000BFE06B50B17748E16B4863E06BFDF7EF
:1031E000D5FD88B1E06B416B88470DE02046FFF7C5
:1031F0006FFF09E009E02046FFF76AFF04E0204680
:10320000FFF766FF002060647EE7206B012877D11E
:1032100005F01000002873D006F010000028FAD046
:1032200000BF00200090206800680090206840687F
:10323000009000BF00BF2068406900F040000028F7
:103240005FD0E06B006840681FFA80F8B8F1000FAB
:1032500055D0A08D404552DDA4F82E80E06B8069EA
:10326000202843D000BF00BF21680C3151E8001F67
:1032700021F4807021680C3141E80002002AF3D16A
:1032800000BF00BF00BF2168143151E8001F21F0CA
:1032900001002168143141E80002002AF3D100BF87
:1032A00000BF00BF2168143151E8001F21F0400029
:1032B0002168143141E80002002AF3D100BF202028
:1032C00084F842000020206300BF00BF21680C3159
:1032D00051E8001F21F0100021680C3141E8000284
:1032E000002AF3D100BFE06BFDF725FD02206063EB
:1032F000A08DE28D801A81B22046FFF7D1FE03E750
:1033000042E0A08DE18D401A1FFA80F8E08DD0B325
:10331000B8F1000F37D000BF00BF21680C3151E871
:10332000001F21F4907021680C3141E80002002A4E
:10333000F3D100BF00BF00BF2168143151E8001F66
:1033400021F001002168143141E80002002AF3D184
:1033500000BF202084F842000020206300BF00BF8F
:1033600021680C3151E8001F21F0100021680C3158
:1033700041E80002002AF3D100BF02206063414609
:103380002046FFF78DFEBFE605F0800030B106F065
:10339000800018B1204601F0D3FBB5E605F04000EF
:1033A00030B106F0400018B1204601F01AFAABE641
:1033B00000BFA9E6D545000810B504460CB90120A8
:1033C00010BDA06900B100E000BF94F8410028B929
:1033D000002084F84000204600F02AF8242084F8D9
:1033E00041002068C06820F400502168C860204671
:1033F00001F0A4FA2068006920F490402168086177
:103400002068406920F02A00216848612068C0686F
:1034100040F400502168C86000206064202084F8D7
:10342000410084F842000020606300BFC8E700004C
:1034300010B586B0044600200290039004900590D9
:1034400055492068884237D100BF5448806940F40C
:103450008040524988610846806900F480400190AC
:1034600000BF00BF00BF0846806940F004008861CB
:103470000846806900F00400019000BF00BF4815B5
:103480000290022003900320059002A94448FDF712
:10349000D1FF4FF48060029000200390049002A9B5
:1034A0003F48FDF7C7FF002211462520FEF7E6F949
:1034B0002520FEF7D3F96CE03A492068884268D1AC
:1034C00000BF3648C06940F400303449C86108463E
:1034D000C06900F40030019000BF00BF00BF084683
:1034E000806940F0040088610846806900F00400AB
:1034F000019000BF00BF042002900220039003202F
:10350000059002A92648FDF795FF082002900020AB
:103510000390049002A92248FDF78CFF224823491A
:103520000860002048600021204881608021C1603F
:103530000021016141618161C161FDF74DFD08B16B
:10354000FDF7F6FB00BF1948E063446200BF164870
:103550001430174908601020486000211448816029
:103560008021C1600021016141618161C161FDF77C
:1035700033FD08B1FDF7DCFB00BF0D48A0634462DA
:1035800000BF002211462620FEF778F92620FEF71C
:1035900065F906B010BD000000380140001002407F
:1035A00000080140004400406C000240880C0020EC
:1035B000CC0C0020704770472DE9F84F04460E46AA
:1035C000174699464FF0000A94F84100202850D140
:1035D00006B117B90120BDE8F88F002060642120F2
:1035E00084F84100FEF7C4F88246A784E784A06807
:1035F000B0F5805F04D1206910B90025B04602E023
:1036000035464FF000081EE0534600228021204638
:10361000CDF8009001F0C4FA20B1202084F84100D8
:103620000320D8E745B9B8F80000C0F308002168C6
:10363000486008F1020803E02878216848606D1CA2
:10364000E08C401EE084E08C0028DDD1534600224F
:1036500040212046CDF8009001F0A2FA20B12020B0
:1036600084F841000320B6E7202084F841000020C0
:10367000B1E70220AFE70000F7B50446154694F81D
:103680004100202836D1019800B10DB90120FEBDBE
:1036900001982062A584E58400206064212084F8DC
:1036A00041001548A16B88621448A16BC862144898
:1036B000A16B08630020A16B486301AE23681A1D4B
:1036C00031682B46A06BFDF7BBFC6FF04000216812
:1036D000086000BF00BF2168143151E8001F41F0AD
:1036E00080002168143141E80002002AF3D100BFB4
:1036F0000020CCE70220CAE711470008694700080C
:10370000E94500087047704700BFFEE7034988425B
:1037100002D10121024A117070470000200B0020E5
:103720000000002010B508480068C06840F00100A3
:1037300005490968C8600448FFF73EF903A1074836
:10374000006800F033FE10BD200B00204D54696D61
:1037500065725F43616C6C6261636B000400002002
:1037600008B500BF1648406940F00100144948619F
:103770000846406900F00100009000BF00BF002231
:1037800011460E20FEF77AF80E20FEF767F80022A9
:1037900011460F20FEF772F80F20FEF75FF80022A7
:1037A00011461020FEF76AF81020FEF757F80022A5
:1037B00011461120FEF762F81120FEF74FF808BD00
:1037C0000010024000B585B00020019002900390E7
:1037D000049000BF5A48806940F010005849886141
:1037E0000846806900F01000009000BF00BF00BFD5
:1037F0000846806940F0200088610846806900F032
:103800002000009000BF00BF00BF0846806940F064
:10381000040088610846806900F00400009000BF41
:1038200000BF00BF0846806940F008008861084674
:10383000806900F00800009000BF00BF00224FF434
:1038400000514048FDF78EFF00224FF4E0513E4802
:10385000FDF788FF00224FF401413C48FDF782FF4D
:103860004FF4005001900120029002200390049038
:1038700001A93448FDF7DEFD122001903448029082
:103880000120039001A93148FDF7D4FD20200190CB
:10389000002002900120039001A92C48FDF7CAFDE9
:1038A000802001902B4802900120039001A9274815
:1038B000FDF7C0FD012001902548029001200390F2
:1038C00001A92148FDF7B6FD0420019000200290D7
:1038D0000120039001A91C48FDF7ACFD4FF4E05016
:1038E00001900120029003900220049001A9164843
:1038F000FDF7A0FD4FF401400190012002900390DC
:103900000220049001A91148FDF794FD0022114600
:103910000620FDF7B3FF0620FDF7A0FF00221146A9
:103920000720FDF7ABFF0720FDF798FF00221146A7
:103930000A20FDF7A3FF0A20FDF790FF05B000BDA8
:103940000010024000100140000C0140000801403E
:10395000000031100000111010B50E480E4908602B
:103960004FF48270486000210B488160C1600161A2
:1039700041614FF4007181611821C1610021016230
:10398000416281620A21C162FEF7C0FB08B1FDF706
:10399000CFF910BD00380040400A002000B587B0C4
:1039A0000020039004900590069001900290164824
:1039B0001649086041F61F404860002113488160A5
:1039C00040F2F311C16000210161416180218161F8
:1039D000FEF764FF08B1FDF7ABF94FF48050039098
:1039E00003A90A48FFF71EF808B1FDF7A1F9002066
:1039F0000190029001A90548FEF70EFF08B1FDF7FE
:103A000097F907B000BD0000002C0140200B0020FA
:103A100000B58DB0002009900A900B900C90079093
:103A200008901C216846FCF7A8FB4FF080401F4916
:103A300008602320486000211C4881606321C16028
:103A40000021016180218161FEF728FF08B1FDF7A7
:103A50006FF94FF48050099009A91448FEF7E2FF6E
:103A600008B1FDF765F91148FFF7F3F908B1FDF763
:103A70005FF900200790089007A90C48FEF7CCFEDC
:103A800008B1FDF755F960200090002001900290E8
:103A90000490042269460548FFF759F908B1FDF77B
:103AA00047F90248FFF7FCF80DB000BD680B002095
:103AB00000B58DB0002009900A900B900C900790F3
:103AC00008901C216846FCF758FB204820490860F4
:103AD0002320486000211E4881606321C1600021CD
:103AE000016180218161FEF7D9FE08B1FDF720F95F
:103AF0004FF48050099009A91548FEF793FF08B1CB
:103B0000FDF716F91248FFF7A4F908B1FDF710F90F
:103B100000200790089007A90D48FEF77DFE08B128
:103B2000FDF706F9602000900020019002900490BB
:103B3000002269460648FFF70AF908B1FDF7F8F8D0
:103B40000348FFF7ADF80DB000BD000000040040D1
:103B5000B00B002010B50B480B4908604FF4E13062
:103B60004860002108488160C16001610C21416109
:103B700000218161C161FFF71FFC08B1FDF7D8F892
:103B800010BD000000380140F80B002010B50B48B4
:103B90000B4908604FF4E13048600021084881601B
:103BA000C16001610C21416100218161C161FFF7A8
:103BB00003FC08B1FDF7BCF810BD00000044004054
:103BC000400C002000BFFEE700BFFEE72DE9F047F4
:103BD00004460D462561D4E90301FCF732FB606120
:103BE0002049206AFCF792FB04D90021206AFCF7E7
:103BF00083FB02D8E069E06108E061686069FCF776
:103C000026FB8146E169FCF7CAFAE0616169206838
:103C1000FCF71DFB8046E669D4E90501FCF711FBC2
:103C20008146A168FCF713FB074631464046FCF786
:103C3000B6FA81463946FCF7B2FA20620949206A91
:103C4000FCF764FB02D20748206206E00021206AEC
:103C5000FCF752FB01D2002020626069A061206A5B
:103C6000BDE8F0870000C6424FF07C52026000229F
:103C700042608260C160026142618261C26102622F
:103C80007047704708B508490968C9084FF47A7247
:103C9000B1FBF2F14143009100BF00BF00994A1E01
:103CA00000920029F9D108BD2803002070B5044610
:103CB000218900226068FDF755FD206800F0A8F812
:103CC0000502206800F0A4F80543218901226068FC
:103CD000FDF748FD6581012020EA95002074E81079
:103CE000FCF7E7FA06464FF07A51FCF7B0FAE060CD
:103CF00070BD000010B50248FEF76EF910BD00005F
:103D0000400A002070B505466C6A0020E087E08616
:103D10002046FEF75BF970BD70B505466C6A2068F9
:103D2000406820F0030021684860606D40F010009A
:103D30006065012084F851002046FEF747F970BD08
:103D400070B50446656A2846FEF749FD70BDF8B5B2
:103D500005466C6AFDF70CFD06462868006800F011
:103D6000200020282DD02068406820F02000216805
:103D700048602068406820F00200216848603246B0
:103D80006421204600F022F818B1606D40F0200058
:103D90006065A06850B900BF002000902068C0682E
:103DA000009020688068009000BF00BF0020E0867F
:103DB000012084F85100606D18B12046FEF706F925
:103DC000F8BD2046FEF70AFD00BFF9E7F8B5044646
:103DD0000E4615463346012202212046009500F08A
:103DE0002FF828B1606D40F0200060650320F8BD19
:103DF0003346002280212046009500F021F828B1AA
:103E0000606D40F0200060650320F0E70020EEE7E1
:103E10003EB50446FF2002900020019000BF2046DE
:103E2000FEF7D5F80128FAD14FF47A70012301AAE0
:103E300002A900902046FEF72EFB9DF804003EBD2F
:103E40002DE9F84F04460D4690461E46DDF82890B1
:103E5000FDF78EFCA0EB0900371AFDF789FC8246BE
:103E60002C480068C0F3CB307843009045E0701CCC
:103E7000002842D0FDF77CFCA0EB0A00B84200D23B
:103E8000A7BB2068406820F0E000216848606068B7
:103E9000B0F5827F0DD1A068B0F5004F03D0A068C7
:103EA000B0F5806F05D12068006820F040002168DF
:103EB0000860A06AB0F5005F0DD100BF20680068FF
:103EC00020F40050216808602068006840F4005029
:103ED0002168086000BF012084F8510000BF002065
:103EE00084F8500000BF0320BDE8F88FFFE700987A
:103EF00000B900270098401E009020688068284084
:103F0000A84201D1012000E000204045AFD10020AF
:103F1000EAE7000028030020704710B5FDF72EFCEB
:103F200010BD000010B501F099FD0948006800F0CF
:103F30008DFEFFF7F7FBFCF73FFDFCF745FDFCF7B7
:103F400005FEFCF78FFD03490348FFF78DFE10BD0A
:103F5000FC02002000005243EC09002070B5FCF781
:103F6000ADFEFCF761FE01F087FD484800780028AF
:103F70007ED0002045490870FCF736FE0123444AF4
:103F80001946022001F0A0FE4248028842A143489F
:103F900000F088FE3E4840A10268414800F082FEE1
:103FA0004048007828B940483BA102683F4800F0EB
:103FB00079FE3F48007828B93E48028836A13E483D
:103FC00000F070FE0023364A19462A2001F027FB34
:103FD0003448007808B9012000E000200346334A45
:103FE00000218A2001F01BFB00232C4A20212A20DB
:103FF00001F015FB2E48007808B9012000E00020F0
:1040000003462D4A20218A2001F009FB2B494FF459
:10401000C06208682A49FEF763FB23480068FCF782
:1040200051F92849C8601A480068FCF74BF925493E
:10403000086117480068FCF745F9054629462148FC
:10404000FFF7C4FD04461748007860B11E492046BA
:10405000FCF75CF900D21C4C2046FCF738F985B21D
:104060002846FCF7DDFC1248007860B9114800E0F2
:104070000AE00088202802DD20200E4908800D4833
:104080000088FCF78FFD00BF70BD0000000000201D
:10409000000300200803002025640000D60900204A
:1040A000E00900200D03002004030020CC090020BB
:1040B0000C0300200A030020C2090020CC020020CB
:1040C000C2030020EC0900200000C64200B58FB0FA
:1040D000282105A8FCF751F814216846FCF74DF893
:1040E000012005900004069000200790012009900F
:1040F00002200C90C1030D914FF4E0110E9105A820
:10410000FDF732FD08B1FCF713FE0F2000900220EE
:104110000190002002904FF48060039000200490F2
:1041200002216846FDF7FCFB08B1FCF701FE0FB069
:1041300000BD704710B50248FEF7FBFC10BD000043
:10414000200B002010B50248FEF7F3FC10BD000064
:10415000680B002010B50248FEF7EBFC10BD000014
:10416000B00B002010B502681C4B984208D0B0F18B
:10417000804F05D01A4B984202D01A4B984203D177
:1041800022F070024B681A43144B984208D0B0F1E9
:10419000804F05D0124B984202D0124B984203D167
:1041A00022F44072CB681A4322F080034C6943EA40
:1041B000040202608B68C3620B688362074B9842FB
:1041C00001D10B69036301234361036903F0010318
:1041D0001BB1036923F00103036110BD002C0140F2
:1041E000000400400008004030B501F01F05012424
:1041F00004FA05F3046A9C430462046A01F01F0593
:1042000002FA05F52C43046230BD30B50C468168D6
:1042100021F47F4142EA032525432943816030BDD3
:104220000A46816821F0700142F00703194381605A
:104230007047000030B5026A056A25F00105056285
:104240004368846924F0700424F003040D682C434F
:1042500022F002028D682A430D4DA84206D100BF0C
:1042600022F00802CD682A4322F00402084DA84239
:1042700007D123F4807323F400734D692B438D69B8
:104280002B43436084614D684563026230BD00008A
:10429000002C014030B5026A056A25F01005056260
:1042A0004368846924F4E04424F440740D6844EACB
:1042B000052422F020028D6842EA05120E4DA84224
:1042C00007D100BF22F08002CD6842EA051222F039
:1042D0004002094DA84209D123F4806323F400630E
:1042E0004D6943EA85038D6943EA85034360846130
:1042F0004D688563026230BD002C014030B5026A12
:10430000056A25F4807505624368C46924F0700469
:1043100024F003040D682C4322F400728D6842EAF5
:1043200005220F4DA84207D100BF22F40062CD68DC
:1043300042EA052222F48062094DA84209D123F401
:10434000805323F400534D6943EA05138D6943EA12
:1043500005134360C4614D68C563026230BD00004F
:10436000002C014030B5036A056A25F480550562CA
:104370004468C26922F4E04222F440720D6842EAC5
:10438000052223F400538D6843EA0533064DA84205
:1043900004D124F480444D6944EA85144460C26128
:1043A0004D680564036230BD002C01402DE9F041E9
:1043B00005460E46002425E0174800EB0410C068AF
:1043C000F0B9154800EB0410C5603046FBF7E0FE7D
:1043D0000746114901EB04103A463146FBF7B4FE9B
:1043E0003046FBF7D5FE0C4901EB041100220A54BC
:1043F000094800EB0412214608A0FCF7BDFA03E0CF
:10440000601CC4B2012CD7DB00BF31461048FCF75A
:10441000B3FABDE8F0810000100A002054494D5F56
:10442000506572696F64456C617073656443616C5B
:104430006C6261636B5F5441534B5B25645D20523A
:10444000656769737465723A25730D0A0000000090
:104450006065000830B50B461446026A056A25F00F
:1044600001050562816921F0F00141EA041122F0A1
:104470000A021A438161026230BD30B50B46144610
:10448000026A056A25F010050562816921F4704110
:1044900041EA043122F0A00242EA03128161026281
:1044A00030BD000070B504460D460D49206809680E
:1044B0000968884213D10A494FF6FF732A460868F3
:1044C0000831FFF779F829460548083001F0CCF9A2
:1044D0004FF48072024908310248FEF7A8FD70BD12
:1044E000A4000020F80B002070B504460D460F49CB
:1044F000206809680968884216D10C492A4608686C
:104500000831FFF7B9F809494FF48072086808319B
:10451000FEF755FD054840680068006820F004007B
:10452000024949680968086070BD0000B8010020B0
:104530002DE9F04105460E46002425E0174800EB22
:104540000410C068F0B9154800EB0410C56030468F
:10455000FBF71EFE0746114901EB04103A463146AF
:10456000FBF7F2FD3046FBF713FE0C4901EB04119B
:1045700000220A54094800EB0412214608A0FCF767
:10458000FBF903E0601CC4B2022CD7DB00BF31464C
:104590000F48FCF7F1F9BDE8F0810000200A002087
:1045A0005541525445785F52784576656E74436143
:1045B0006C6C6261636B5F5441534B5B25645D209F
:1045C00052656769737465723A25730D0A000000BD
:1045D000B865000870B505466C6A0020E085E08487
:1045E0002046FEF775FD70BD70B506460025746A5D
:1045F00020684069C0F3C01594F84100212805D116
:1046000025B10020E084204600F0FBF820684069D6
:10461000C0F3801594F84200222805D125B100206E
:10462000E085204600F0A7F8606C40F01000606460
:104630002046FEF74DFD70BD70B505466C6A2868D2
:10464000006800F02000002842D1E08500BF00BFD4
:1046500021680C3151E8001F21F4807021680C3171
:1046600041E80002002AF3D100BF00BF00BF21686B
:10467000143151E8001F21F001002168143141E894
:104680000002002AF3D100BF00BF00BF216814312F
:1046900051E8001F21F040002168143141E8000278
:1046A000002AF3D100BF202084F84200206B0128AB
:1046B0000ED100BF00BF21680C3151E8001F21F06E
:1046C000100021680C3141E80002002AF3D100BF3C
:1046D00000206063206B012804D1A18D2046FEF7E5
:1046E000DFFC02E02046FEF765FF70BD70B50546B1
:1046F0006C6A01206063206B012805D1A08D410800
:104700002046FEF7CDFC02E02046FEF754FF70BDC8
:1047100070B505466C6A2868006800F02000F8B99A
:104720000020E08400BF00BF2168143151E8001F61
:1047300021F080002168143141E80002002AF3D101
:1047400000BF00BF00BF21680C3151E8001F41F0DD
:10475000400021680C3141E80002002AF3D102E058
:104760002046FEF7CFFF70BD70B50446656A284647
:10477000FEF7C9FF70BD00BF00BF02680C3252E8EF
:10478000002F22F4907102680C3242E80013002BD3
:10479000F3D100BF00BF00BF0268143252E8002FFF
:1047A00022F001010268143242E80013002BF3D119
:1047B00000BF016B01290ED100BF00BF02680C329F
:1047C00052E8002F22F0100102680C3242E8001378
:1047D000002BF3D100BF202180F84210002101639B
:1047E000704710B504462068C06820F0400021687A
:1047F000C860202084F841002046FEF783FF002097
:1048000010BD00BF00BF02680C3252E8002F22F03A
:10481000C00102680C3242E80013002BF3D100BF44
:10482000202180F841107047F8B5044694F8420002
:10483000222875D1A068B0F5805F0CD1206950B9ED
:104840000025A66A20684068C0F308003080A06A8E
:10485000801CA06215E0A56A0026A068B0F5805F04
:1048600003D0A06828B9206918B92068406828706A
:1048700004E02068406800F07F002870A06A401CB7
:10488000A062E08D401E80B2E085002846D12068FD
:10489000C06820F020002168C8602068C06820F44B
:1048A00080702168C8602068406920F0010021689C
:1048B0004861202084F8420000206063206B0128BA
:1048C00026D10020206300BF00BF21680C3151E8D1
:1048D000001F21F0100021680C3141E80002002A7D
:1048E000F3D100BF2068006800F0100010280AD142
:1048F00000BF002000902068006800902068406899
:10490000009000BF00BFA18D2046FEF7C9FB02E06A
:104910002046FEF74FFE0020F8BD01E00020FBE737
:104920000220F9E701B54FF6FF73012269460248FC
:10493000FEF742FE08BD0000F80B002070B50446EB
:104940002168096921F44051E2681143226811612C
:104950002269A1681143626941EA02052168C968B8
:1049600041F20C62914329432268D1602168496970
:1049700021F44071A2691143226851612D4A2168D6
:10498000914202D1FDF7A8F801E0FDF795F800EBA0
:10499000C00101EB001162689200B1FBF2F100EB83
:1049A000C00202EB001263689B00B2FBF3F26423C7
:1049B000B2FBF3F202EBC20303EB0212A1EB8201A2
:1049C000322202EB01116422B1FBF2F101F0F0019D
:1049D00000EBC00202EB001263689B00B2FBF3F233
:1049E0006423B2FBF3F201EB021200EBC00101EB16
:1049F000001163689B00B1FBF3F100EBC00303EB14
:104A000000136668B600B3FBF6F36426B3FBF6F357
:104A100003EBC30606EB0313A1EB8301322303EB85
:104A200001116423B1FBF3F101F00F01114422687D
:104A3000916070BD0038014077B581B004461546DD
:104A40000298A062A58500206064222084F84200BC
:104A50002848E16B88622848E16BC8622748E16B0F
:104A600008630020E16B486302AE32682368191DB9
:104A70002B46E06BFCF7E4FA00BF002000902068B2
:104A80000068009020684068009000BF00BF206967
:104A900070B100BF00BF21680C3151E8001F41F424
:104AA000807021680C3141E80002002AF3D100BF78
:104AB00000BF00BF2168143151E8001F41F0010020
:104AC0002168143141E80002002AF3D100BF00BF81
:104AD00000BF2168143151E8001F41F040002168F7
:104AE000143141E80002002AF3D100BF002004B0D5
:104AF00070BD000039460008ED460008E945000891
:104B000010B5034699629A85DA8500205864222000
:104B100083F84200186928B11868C06840F48070B2
:104B20001C68E0601868406940F001001C68606122
:104B30001868C06840F020001C68E060002010BDCC
:104B4000014691F84100212828D18868B0F5805F9E
:104B50000BD1086948B90A6A1088C0F308000B68CD
:104B60005860086A801C086205E00B6A581C0862DD
:104B700018780B685860C88C401E80B2C88458B939
:104B80000868C06820F080000B68D8600868C068BA
:104B900040F040000B68D860002070470220FCE71E
:104BA0002DE9F84304460D4617469846089E31E025
:104BB000701C70B3FCF7DCFDA0EB0800B04200D81D
:104BC00016B90320BDE8F8832068C06800F004002F
:104BD000F8B1802D1ED0402D1CD020680068C0F395
:104BE000C000B0B100BF00200090206800680090B5
:104BF00020684068009000BF00BF2046FFF7BBFD63
:104C00000820606400BF002084F8400000BF01203D
:104C1000D8E7FFE7206800682840A84201D10120BA
:104C200000E00020B842C3D00020CBE710B5024816
:104C3000FEF750FA10BD0000F80B002010B5024836
:104C4000FEF748FA10BD0000400C002010B50446E5
:104C500094F80C0178B14FF4807204F108012068D7
:104C6000FEF7ADF960680068006820F00400616834
:104C70000968086006E04FF4807204F108012068BA
:104C8000FEF7D5F902A1D4F81001FFF751FC10BDD1
:104C9000554152545F527843616C6C6261636B00A2
:104CA00000BFFEE70FB4084B10B504A902AA039891
:104CB00000F014F9044602A9002000F09DFC2046F3
:104CC00010BC5DF814FB0000F95500087CB50C0021
:104CD0001D461646014601D0601E00E00020CDE9C9
:104CE0000010064B6A462946304600F0F7F8002CC3
:104CF00002D0009A002111707CBD0000E35500082D
:104D000002480068C0F30220704700000CED00E08C
:104D100010B5002804DB0A07130E054A135406E0F9
:104D20000A07140E034A00F00F031B1FD45410BDD2
:104D300000E400E018ED00E002E008C8121F08C11E
:104D4000002AFAD170477047002001E001C1121F0C
:104D5000002AFBD1704700002DE9FF5F82B00021DF
:104D6000DDE90430020DDDF840B0034318D044F60D
:104D70001050A2F2FF3242431514119801281FD09F
:104D8000A5EB0B00401C5FEA000A4FF000064E4FF7
:104D9000DFF83891B046504615D5CAF1000413E04B
:104DA000119801244AA3012801D16FEA0B0102984E
:104DB000119AC0E90031C0E9024206B0BDE8F09F97
:104DC000CBF10000DFE704460021404A491842EBDE
:104DD0000450CDE9001012E0E00707D032463B4610
:104DE00040464946FBF7C1FB8046894632463B4672
:104DF00010461946FBF7B9FB06460F466410002C17
:104E0000EAD1DDE90401DDE90023BAF1000F06DA99
:104E1000FBF7ABFB42464B46FBF7A7FB05E0FBF776
:104E200016FC42464B46FBF712FC04460E46002297
:104E3000284BFBF793FC03D84FF0FF30014607E007
:104E40000022254B20463146FBF7E8FAFBF76EFCC3
:104E5000102409E0002C0ADB0A220023FBF776FA73
:104E6000039B30321A55641E50EA0102F2D1641CD1
:104E7000039AC4F111031444119A012A03D00122A8
:104E800008430DD10AE0084304D000204FF0110B75
:104E9000119072E7A3EB0B056D1E0DE05B4504DD81
:104EA0004FF0000205F1010504E003DA4FF00002C3
:104EB000A5F10105002AECD002981199C0E9023150
:104EC000C0E9004579E70000000014400000F03F11
:104ED000300000000000F0430000E03F2DE9FF4FEC
:104EE00095B09A46884606460025EEE1252877D1FA
:104EF00000242746F94A0121039400E0044316F8F0
:104F0000013F203B01FA03F01042F7D130782A2804
:104F100011D06FF02F033078A0F13002092A16D893
:104F2000039A44F0020402EB820203EB42021044B3
:104F3000761C0390EFE758F8042B0392002A03DA5B
:104F4000504244F40054039044F00204761C30783C
:104F50002E2816D116F8010F44F004042A280DD08B
:104F60006FF02F023078A0F13003092B09D807EB3E
:104F7000870302EB4303C718761CF3E758F8047B5A
:104F8000761C30786C280FD006DC4C2817D06828A7
:104F90000DD06A2814D104E0742810D07A280FD1DB
:104FA0000DE044F400140AE044F4801401E044F4F9
:104FB00040147278824202D104F58014761C761C6B
:104FC000307866280BD013DC582877D009DC00280D
:104FD00075D04528F6D04628F4D047281AD193E159
:104FE00018E0632835D0642879D0652812D18BE188
:104FF000702873D008DC6728F1D069286FD06E283C
:105000000DD06F2806D1ACE073282CD0752874D051
:10501000782853D05246179990476D1C54E1C4F339
:105020000250022809D003280DD0D8F80010042817
:105030000DD00D6008F1040846E1D8F80010EA1719
:10504000C1E90052F6E7D8F800100D80F2E70D70C4
:10505000F0E718F8041B8DF8001000208DF801000F
:10506000EB46012003E058F804BB4FF0FF30610726
:105070004FF0000102D40DE009F101018946B94267
:105080000FDA8145F8DB1BF809100029F4D108E09C
:1050900009F1010189468142FADB1BF80910002958
:1050A000F6D103985346A0EB090721463846179AD4
:1050B00000F080FA284400EB090507E044E008E12D
:1050C0000DE01BF8010B524617999047B9F1010901
:1050D000F7D2534621463846179AF2E039E00A21C2
:1050E000C4F302524FF0000B0091022A06D058F888
:1050F000040BC117032A09D00AE023E008F10700D6
:1051000020F00702F2E80201904605E000B2C11764
:10511000042A01D140B2C117002906DA0A4600214B
:10512000404261EB02012D2202E0220504D52B2230
:105130008DF80420012203E0E20701D02022F7E7E6
:10514000914657E00A2100E010214FF0000B00913A
:105150000BE010214FF0000B44F0040408270091ED
:1051600003E008204FF0000B0090C4F30252022A23
:1051700005D058F8040B0021032A08D008E008F1F4
:10518000070020F00702F2E80201904603E080B237
:10519000042A00D1C0B24FF0000922072AD5327884
:1051A000702A07D0DDF800C08CF0100C5CEA0B0C04
:1051B00005D00EE040228DF80420012208E050EADC
:1051C000010306D030238DF804308DF8052002222B
:1051D0009146009B83F0080353EA0B030AD150EA7F
:1051E000010201D1620705D530228DF804204FF06D
:1051F00001097F1E3278582A04D039A20C920CAAD9
:1052000002920BE03BA2F9E75B46009AFBF79EF89F
:105210000C9B9B5C029A521E0292137050EA010290
:10522000F2D1029804A9081A00F1200B600702D5F8
:1052300024F4803400E001275F4502DDA7EB0B007A
:1052400000E0002000EB0B01009003984944401A55
:105250000390E00306D453462146179A039800F0C2
:10526000A9F90544002706E001A85246C05D179938
:1052700090476D1C7F1C4F45F6DBE0030CD5534671
:105280002146179A039800F095F9054404E0302070
:105290005246179990476D1C0099481E00900029AE
:1052A000F5DC08E00298029952460078491C029108
:1052B000179990476D1CBBF10001ABF1010BF1DCBC
:1052C0005BE100F065F90544761C307800287FF436
:1052D0000DAE19B02846BDE8F08F00000928010086
:1052E000303132333435363738396162636465665C
:1052F000000000003031323334353637383941421E
:105300004344454600000000600700D4062708F12A
:10531000070020F00700F0E80223804603F0004C6D
:105320005FEA0C0001D097A009E0200501D596A006
:1053300005E0E00701D095A001E0AFF24C0013902A
:10534000307823F0004365280CD006DC452809D0CE
:1053500046281DD047287FD13BE0662818D0672813
:105360007AD136E00021112F01DB112000E0781CFA
:10537000CDE9000104A90CA8FFF7EEFCDDE90D0161
:105380000C9A4FF0000B07F10109109200914EE0CA
:105390004FF000400097CDE9011004A90CA8FFF7D9
:1053A000DBFCDDE90D020C9B0F994FF0000B9146E1
:1053B0001093009211B9791C00EB0109B7EB0900B9
:1053C00003D4C0F1FF3B07F10109A9EB07000190ED
:1053D00042E0012F00DA01270021112F01DD112009
:1053E00000E03846CDE9000104A90CA8FFF7B4FCA1
:1053F000DDE90D010C9A00914FF0000BB9461092B7
:1054000021070FD4009A4A4503DA914601E0A9F139
:105410000109B9F1010F05DD109AA9F10101515CF3
:105420003029F4D0B84202DA10F1040F03DA012176
:10543000CDE9011010E0002803DC8344A9EB000152
:1054400002E0411C494500DD8946A0EB0B00401CF1
:1054500001904FF000400290200705D40198484584
:1054600002DB4FF0FF30019000208DF84B000298D6
:105470000DF14B07B0F1004F25D002200C902B20EE
:105480000D90029800280CDA404202902D200D90D9
:1054900007E00A210298FAF743FF3031029007F83B
:1054A000011D0C99481E0C900029F2DC029800287E
:1054B000EFD1791E0D980870307800F0200040F090
:1054C000450007F8020D11A8C01BC01D02901398DB
:1054D000007800B1012000EB0901019801EBE071B7
:1054E000029801440398401A401E0390E00306D43A
:1054F00053462146179A039800F05CF80544139828
:10550000007818B15246179990476D1CE00323D5D7
:1055100053462146179A039800F04CF805441BE0C7
:10552000BBF1000F07DB0098584504DD1098179970
:1055300010F80B0001E0179930205246904701986F
:105540000BF1010B401E05F10105019004D12E2045
:105550005246179990476D1CB9F10001A9F1010954
:10556000DEDC05E017F8010B5246179990476D1CD9
:105570000299481E02900029F4DC53462146179AEE
:1055800003989EE62D0000002B0000002000000084
:105590002DE9F041044600251E461746880404D430
:1055A00005E039462020B0476D1C641EF9D5284619
:1055B000BDE8F0812DE9F041044600251E469046E5
:1055C000C80301D5302700E02027880404D505E072
:1055D00041463846B0476D1C641EF9D52846BDE8E3
:1055E000F0814A68002A06D00A68531C0B601070CC
:1055F0004868401E486070470A68531C0B60107072
:10560000704730B50346184603E00C780444E0B216
:10561000491C141EA2F10105EAB2F6D130BDF0B565
:1056200005460E4614461F4610E022783B4631469A
:10563000284600F011F8641CA81DC5B2BA2D05DB80
:105640000025701CC6B2072E00DDF0BD20780028B2
:10565000EBD100BFF9E70000F0B5044601EB4106CD
:1056600004EB8616761CB5B2002017E043B1A2F118
:10567000200606EB86060B4F3E44365CF64306E0FA
:10568000A2F1200606EB8606064F3E44365C2F1834
:10569000DFF814C00CF80760461CF0B20528E5DB03
:1056A000F0BD0000565D0008C203002010B503469F
:1056B0000C46A018411EC81701EB5060C011A1EBA9
:1056C000C010185C10BD0246481D00F07F00135C3E
:1056D000881D00F07F00105C43EA0023C81D00F025
:1056E0007F00105C43EA004301F1080000F07F00F6
:1056F000105C43EA006080B27047024601F1090085
:1057000000F07F00105C70470146002007E009B1FF
:10571000FF2200E00022044B1A54421C90B2B0F564
:10572000C06FF4DB70470000C203002010B5C82032
:10573000FBF7D4FC104A118AD0680122FCF712F85A
:105740001420FBF7CBFCE22000F018F8A32000F0B7
:1057500015F8EB2000F012F82F2000F00FF8C2200F
:1057600000F00CF8812000F009F8B42000F006F8F1
:10577000AF2000F003F810BDCC02002001B50A4AAA
:10578000118B50690022FBF7EDFF0749C823012266
:1057900008686946FCF7A0FD034A118B5069012295
:1057A000FBF7E0FF08BD0000CC020020FBF7F2FF92
:1057B000FEF78CFCFEF706F8FDF7D2FFFEF7CCF8FB
:1057C000FEF7ECF8FEF724F9FEF7C4F9FEF7DEF970
:1057D000FEF76EF9012251030748FBF7C3FFFEF7FE
:1057E000A1FB00224FF400510348FBF7BBFF01E08F
:1057F000FEF7B4FBFCE700000010014000BF00BF53
:1058000000BF00BF00BFBFF34F8F00BF00BF00BF8E
:105810000948006800F4E06008490843001D064993
:10582000086000BF00BF00BFBFF34F8F00BF00BFC5
:1058300000BF00BF00BFFDE70CED00E00000FA056F
:10584000704770472DE9F04104460D460026274673
:1058500000BF05E017F8010BFFF764F8701CC6B233
:10586000AE42F7DBBDE8F08138B505460C460A4983
:105870000094CA882B460868802100F002FA064985
:10588000C9880819C11700EB5161C911A0EBC111FA
:10589000014AD18038BD00002C0300202DE9F047DB
:1058A00006460F464FF0FF0A00244FF0FF38A1468E
:1058B0006949CB888A880889802100F0D1F984B2AF
:1058C000092C02DA5046BDE8F0876348408940BBA6
:1058D00061498A8823460868802100F087F90FFA19
:1058E00080F8B8F1000F0EDB01205B494881A1F878
:1058F0000480CB888A880889802100F0B1F90928C2
:105900000FDA5046DFE7544989882144C81EC11781
:1059100000EB5161C911A0EBC1114F4A9180504673
:10592000D1E74D48008960B94B4A91881068FFF76C
:10593000CAFE4949088108460089A04201DD504657
:10594000C1E745480089444989880844401E8028A9
:105950001CDD41480068404B9B88C1183E48808848
:10596000C0F18000C2B24846FFF74BFE81463A487C
:10597000007A401E384B1B7918448038C2B2364832
:1059800001684846FFF73DFE81460CE0324800685A
:10599000314B9B88C1183048007A401EC2B248463D
:1059A000FFF72FFE81462C4B1A8999881868FFF75C
:1059B0007DFE48453ED1284880882749098908440A
:1059C000802816DD24488088C0F1800085B22248F6
:1059D0000068214A928881182A463046FAF7B4FBBB
:1059E0001D4B1B895A1B1C4B70191968FAF7ACFB2D
:1059F00009E019480068184B9B88C11816480289AD
:105A00003046FAF7A1FB144800893880124A918881
:105A10001068FFF772FE82460F4989880E4A128984
:105A20008818C11700EB5161C911A0EBC1110A4AD6
:105A300091800AE008498988481CC11700EB516130
:105A4000C911A0EBC111044A9180002002490881CC
:105A50004881504637E700002C030020044800210D
:105A6000016041608160034801490860002070477F
:105A70002C030020380300202DE9F043A1B0FF20C3
:105A80005949087000200090ADE0694601A8FFF771
:105A900005FF554908700846007813287ED006DCBB
:105AA00010280FD0112857D0122871D173E0142874
:105AB00077D0152878D0FF286AD14FF0FF3021B079
:105AC000BDE8F0839DF811004FF07F4101EA0060CE
:105AD0009DF810104FF47F0202EA014108439DF83F
